:020000040800F2
:1000000000000220511D00086D1C0008731C000830
:10001000791C00087F1C0008851C000800000000F7
:100020000000000000000000000000008B1C000821
:10003000991C000800000000A71C0008B51C00085F
:10004000A11D0008A11D0008A11D0008A11D000898
:10005000A11D0008A11D0008A11D0008A11D000888
:10006000A11D0008A11D0008A11D0008A11D000878
:10007000A11D0008A11D0008A11D0008A11D000868
:10008000A11D0008A11D0008A11D0008000000001E
:10009000000000000000000000000000A11D00089A
:1000A000A11D0008A11D0008A11D0008A11D000838
:1000B000A11D0008A11D0008A11D0008A11D000828
:1000C000A11D0008A11D0008A11D0008A11D000818
:1000D000A11D0008A11D0008A11D000800000000CE
:1000E000A11D0008A11D0008A11D000800000000BE
:1000F000000000000000000000000000A11D00083A
:1001000000000000A11D0008A11D0008A11D00089D
:1001100000000000000000000000000000000000DF
:10012000A11D0008A11D0008A11D0008A11D0008B7
:10013000A11D0008000000000000000000000000F9
:10014000000000000000000000000000A11D0008E9
:10015000A11D0008A11D0008A11D0008A11D000887
:10016000A11D0008A11D0008000000000000000003
:10017000000000000000000000000000000000007F
:1001800000000000A11D00080000000000000000A9
:08019000A11D0008A11D0008DB
:1001A00010B5054C237833B9044B13B10448AFF3B1
:1001B00000800123237010BD00010020000000001A
:1001C000F854000808B5034B1BB103490348AFF3CB
:1001D000008008BD0000000004010020F854000861
:1001E00001F0FF01102A2BDB10F0070F08D010F8E8
:1001F000013B013A8B422DD010F0070F42B3F6D1EC
:10020000F0B441EA012141EA014122F007047FF004
:1002100000070023F0E80256083C85EA010586EA5B
:10022000010685FA47F5A3FA87F586FA47F6A5FA97
:1002300087F68EB9EED1F0BC01F0FF0102F00702A3
:1002400032B110F8013B013A83EA010313B1F8D14E
:100250000020704701387047002D06BF354603382F
:10026000073815F0010F07D1013015F4807F02BF68
:10027000013015F4C03F0130F0BC0138704700BFB9
:1002800081F0004102E000BF83F0004330B54FEA47
:1002900041044FEA430594EA050F08BF90EA020FB4
:1002A0001FBF54EA000C55EA020C7FEA645C7FEA47
:1002B000655C00F0E2804FEA5454D4EB5555B8BF6A
:1002C0006D420CDD2C4480EA020281EA030382EADB
:1002D000000083EA010180EA020281EA0303362D6D
:1002E00088BF30BD11F0004F4FEA01314FF4801C40
:1002F0004CEA113102D0404261EB410113F0004F52
:100300004FEA03334CEA133302D0524263EB430308
:1003100094EA050F00F0A780A4F10104D5F1200EA6
:100320000DDB02FA0EFC22FA05F2801841F1000101
:1003300003FA0EF2801843FA05F359410EE0A5F1D5
:1003400020050EF1200E012A03FA0EFC28BF4CF006
:10035000020C43FA05F3C01851EBE37101F00045BC
:1003600007D54FF0000EDCF1000C7EEB00006EEBC9
:100370000101B1F5801F1BD3B1F5001F0CD3490853
:100380005FEA30004FEA3C0C04F101044FEA4452AA
:1003900012F5800F80F09A80BCF1004F08BF5FEA31
:1003A000500C50F1000041EB045141EA050130BD11
:1003B0005FEA4C0C404141EB0101013C28BFB1F523
:1003C000801FE9D291F0000F04BF01460020B1FA6E
:1003D00081F308BF2033A3F10B03B3F120020CDA41
:1003E0000C3208DD02F1140CC2F10C0201FA0CF01F
:1003F00021FA02F10CE002F11402D8BFC2F1200C84
:1004000001FA02F120FA0CFCDCBF41EA0C01904039
:10041000E41AA2BF01EB0451294330BD6FEA040482
:100420001F3C1CDA0C340EDC04F11404C4F120026D
:1004300020FA04F001FA02F340EA030021FA04F37F
:1004400045EA030130BDC4F10C04C4F1200220FAD6
:1004500002F001FA04F340EA0300294630BD21FA14
:1004600004F0294630BD94F0000F83F4801306BFDA
:1004700081F480110134013D4EE77FEA645C18BFCE
:100480007FEA655C29D094EA050F08BF90EA020F65
:1004900005D054EA000C04BF1946104630BD91EA5D
:1004A000030F1EBF0021002030BD5FEA545C05D160
:1004B0004000494128BF41F0004130BD14F580049F
:1004C0003CBF01F5801130BD01F0004545F0FE4113
:1004D00041F470014FF0000030BD7FEA645C1ABF48
:1004E000194610467FEA655C1CBF0B46024650EA7F
:1004F000013406BF52EA033591EA030F41F40021AB
:1005000030BD00BF90F0000F04BF0021704730B530
:100510004FF4806404F132044FF000054FF0000105
:1005200050E700BF90F0000F04BF0021704730B5C6
:100530004FF4806404F1320410F0004548BF40429B
:100540004FF000013EE700BF42004FEAE2014FEAF0
:1005500031014FEA02701FBF12F07F4393F07F4FCB
:1005600081F06051704732F07F4208BF704793F0CE
:100570007F4F04BF41F40021704730B54FF46074E1
:1005800001F0004521F000411CE700BF50EA0102E4
:1005900008BF704730B54FF000050AE050EA01028D
:1005A00008BF704730B511F0004502D5404261EBFD
:1005B00041014FF4806404F132045FEA915C3FF43E
:1005C000D8AE4FF003025FEADC0C18BF03325FEADB
:1005D000DC0C18BF033202EBDC02C2F1200300FA8C
:1005E00003FC20FA02F001FA03FE40EA0E0021FAB1
:1005F00002F11444BDE600BF70B54FF0FF0C4CF49F
:10060000E06C1CEA11541DBF1CEA135594EA0C0F50
:1006100095EA0C0F00F0DEF82C4481EA030621EA8B
:100620004C5123EA4C5350EA013518BF52EA0335C6
:1006300041F4801143F4801338D0A0FB02CE4FF078
:100640000005E1FB02E506F00042E0FB03E54FF0A8
:100650000006E1FB03569CF0000F18BF4EF0010EA0
:10066000A4F1FF04B6F5007F64F5407404D25FEA9C
:100670004E0E6D4146EB060642EAC62141EA55514F
:100680004FEAC52040EA5E504FEACE2EB4F1FD0C91
:1006900088BFBCF5E06F1ED8BEF1004F08BF5FEA0F
:1006A000500E50F1000041EB045170BD06F00046C1
:1006B00046EA010140EA020081EA0301B4EB5C046E
:1006C000C2BFD4EB0C0541EA045170BD41F4801166
:1006D0004FF0000E013C00F3AB8014F1360FDEBF8B
:1006E000002001F0004170BDC4F10004203C35DA67
:1006F0000C341BDC04F11404C4F1200500FA05F3EA
:1007000020FA04F001FA05F240EA020001F000428A
:1007100021F0004110EBD37021FA04F642EB060100
:100720005EEA430E08BF20EAD37070BDC4F10C042A
:10073000C4F1200500FA04F320FA05F001FA04F2EE
:1007400040EA020001F0004110EBD37041F10001DA
:100750005EEA430E08BF20EAD37070BDC4F12005E5
:1007600000FA05F24EEA020E20FA04F301FA05F24D
:1007700043EA020321FA04F001F0004121FA04F2F5
:1007800020EA020000EBD3705EEA430E08BF20EAC5
:10079000D37070BD94F0000F0FD101F000464000FF
:1007A00041EB010111F4801F08BF013CF7D041EA81
:1007B000060195F0000F18BF704703F00046520085
:1007C00043EB030313F4801F08BF013DF7D043EA56
:1007D0000603704794EA0C0F0CEA135518BF95EA0C
:1007E0000C0F0CD050EA410618BF52EA4306D1D193
:1007F00081EA030101F000414FF0000070BD50EAB2
:10080000410606BF1046194652EA430619D094EA3B
:100810000C0F02D150EA013613D195EA0C0F05D125
:1008200052EA03361CBF104619460AD181EA030179
:1008300001F0004141F0FE4141F470014FF0000031
:1008400070BD41F0FE4141F4780170BD70B54FF0CC
:10085000FF0C4CF4E06C1CEA11541DBF1CEA13554C
:1008600094EA0C0F95EA0C0F00F0A7F8A4EB05042E
:1008700081EA030E52EA03354FEA013100F0888025
:100880004FEA03334FF0805545EA131343EA1263EE
:100890004FEA022245EA111545EA10654FEA0026A3
:1008A0000EF000419D4208BF964244F1FD0404F55C
:1008B000407402D25B084FEA3202B61A65EB0305B8
:1008C0005B084FEA32024FF480104FF4002CB6EB75
:1008D000020E75EB030E22BFB61A754640EA0C00F5
:1008E0005B084FEA3202B6EB020E75EB030E22BF35
:1008F000B61A754640EA5C005B084FEA3202B6EB76
:10090000020E75EB030E22BFB61A754640EA9C0034
:100910005B084FEA3202B6EB020E75EB030E22BF04
:10092000B61A754640EADC0055EA060E18D04FEAC2
:10093000051545EA16754FEA06164FEAC30343EA62
:1009400052734FEAC2025FEA1C1CC0D111F4801F2F
:100950000BD141EA00014FF000004FF0004CB6E728
:1009600011F4801F04BF01430020B4F1FD0C88BFC7
:10097000BCF5E06F3FF6AFAEB5EB030C04BFB6EBD2
:10098000020C5FEA500C50F1000041EB045170BDC5
:100990000EF0004E4EEA113114EB5C04C2BFD4EBF2
:1009A0000C0541EA045170BD41F480114FF0000E76
:1009B000013C90E645EA060E8DE60CEA135594EAF2
:1009C0000C0F08BF95EA0C0F3FF43BAF94EA0C0FF5
:1009D0000AD150EA01347FF434AF95EA0C0F7FF46A
:1009E00025AF104619462CE795EA0C0F06D152EABE
:1009F00003353FF4FDAE1046194622E750EA4106A2
:100A000018BF52EA43067FF4C5AE50EA41047FF4B2
:100A10000DAF52EA43057FF4EBAE12E74FF0FF3C17
:100A200006E000BF4FF0010C02E000BF4FF0010CE8
:100A30004DF804CD4FEA410C7FEA6C5C4FEA430C61
:100A400018BF7FEA6C5C1BD001B050EA410C0CBFB0
:100A500052EA430C91EA030F02BF90EA020F002012
:100A6000704710F1000F91EA030F58BF994208BF79
:100A700090422CBFD8176FEAE37040F00100704736
:100A80004FEA410C7FEA6C5C02D150EA013C07D18D
:100A90004FEA430C7FEA6C5CD6D152EA033CD3D0D8
:100AA0005DF8040B704700BF8446104662468C46D2
:100AB0001946634600E000BF01B5FFF7B7FF002805
:100AC00048BF10F1000F01BD4DF808EDFFF7F4FF2E
:100AD0000CBF012000205DF808FB00BF4DF808EDB9
:100AE000FFF7EAFF34BF012000205DF808FB00BFDC
:100AF0004DF808EDFFF7E0FF94BF012000205DF8FE
:100B000008FB00BF4DF808EDFFF7CEFF94BF0120B2
:100B100000205DF808FB00BF4DF808EDFFF7C4FFAB
:100B200034BF012000205DF808FB00BF4FEA410CF4
:100B30007FEA6C5C02D150EA013C0AD14FEA430CD7
:100B40007FEA6C5C02D152EA033C02D14FF0000014
:100B500070474FF00100704753B94AB9002908BFE8
:100B600000281CBF4FF0FF314FF0FF3000F074B988
:100B7000ADF1080C6DE904CE00F006F8DDF804E0F4
:100B8000DDE9022304B070472DE9F047089D0446D3
:100B90008E46002B4DD18A42944669D9B2FA82F230
:100BA00052B101FA02F3C2F1200120FA01F10CFA6C
:100BB00002FC41EA030E94404FEA1C48210CBEFBA4
:100BC000F8F61FFA8CF708FB16E341EA034306FB2D
:100BD00007F199420AD91CEB030306F1FF3080F0BC
:100BE0001F81994240F21C81023E63445B1AA4B209
:100BF000B3FBF8F008FB103344EA034400FB07F7AB
:100C0000A7420AD91CEB040400F1FF3380F00A81EB
:100C1000A74240F207816444023840EA0640E41BE0
:100C200000261DB1D4400023C5E900433146BDE88C
:100C3000F0878B4209D9002D00F0EF800026C5E92E
:100C4000000130463146BDE8F087B3FA83F6002E46
:100C50004AD18B4202D3824200F2F980841A61EBBE
:100C6000030301209E46002DE0D0C5E9004EDDE7DC
:100C700002B9FFDEB2FA82F2002A40F09280A1EBC4
:100C80000C014FEA1C471FFA8CFE0126200CB1FB19
:100C9000F7F307FB131140EA01410EFB03F0884212
:100CA00008D91CEB010103F1FF3802D2884200F29F
:100CB000CB804346091AA4B2B1FBF7F007FB101131
:100CC00044EA01440EFB00FEA64508D91CEB0404CF
:100CD00000F1FF3102D2A64500F2BB800846A4EB2A
:100CE0000E0440EA03409CE7C6F12007B34022FA15
:100CF00007FC4CEA030C20FA07F401FA06F31C4344
:100D0000F9404FEA1C4900FA06F3B1FBF9F8200C50
:100D10001FFA8CFE09FB181140EA014108FB0EF096
:100D2000884202FA06F20BD91CEB010108F1FF3AE6
:100D300080F08880884240F28580A8F102086144F2
:100D4000091AA4B2B1FBF9F009FB101144EA014100
:100D500000FB0EFE8E4508D91CEB010100F1FF34AB
:100D60006CD28E456AD90238614440EA0840A0FB43
:100D70000294A1EB0E01A142C846A64656D353D019
:100D80005DB1B3EB080261EB0E0101FA07F722FA3D
:100D900006F3F1401F43C5E9007100263146BDE866
:100DA000F087C2F12003D8400CFA02FC21FA03F3C9
:100DB000914001434FEA1C471FFA8CFEB3FBF7F04A
:100DC00007FB10360B0C43EA064300FB0EF69E426F
:100DD00004FA02F408D91CEB030300F1FF382FD208
:100DE0009E422DD9023863449B1B89B2B3FBF7F6B0
:100DF00007FB163341EA034106FB0EF38B4208D989
:100E00001CEB010106F1FF3816D28B4214D9023EC9
:100E10006144C91A46EA004638E72E46284605E7E7
:100E20000646E3E61846F8E64B45A9D2B9EB0208B8
:100E300064EB0C0E0138A3E74646EAE7204694E748
:100E40004046D1E7D0467BE7023B614432E730467B
:100E500009E76444023842E7704700BF80B586B0B6
:100E600002AF0346FB71FB7923F00F03FB73FB79A1
:100E70001B01BB73FB7B43F00C03DBB23B72FB7BC0
:100E800043F00803DBB27B72BB7B43F00C03DBB2A5
:100E9000BB72BB7B43F00803DBB2FB7207F10802B5
:100EA0006423009304234E21034801F0D9FB00BFC3
:100EB0001037BD4680BD00BF1C01002080B586B044
:100EC00002AF0346FB71FB7923F00F03FB73FB7941
:100ED0001B01BB73FB7B43F00D03DBB23B72FB7B5F
:100EE00043F00903DBB27B72BB7B43F00D03DBB243
:100EF000BB72BB7B43F00903DBB2FB7207F1080254
:100F00006423009304234E21034801F0A9FB00BF92
:100F10001037BD4680BD00BF1C01002080B582B0E7
:100F200000AF0020FFF79AFF00237B6005E0202040
:100F3000FFF7C4FF7B6801337B607B68632BF6DDC2
:100F400000BF00BF0837BD4680BD80B500AF32206E
:100F500000F09AFF3020FFF781FF052000F094FF9A
:100F60003020FFF77BFF012000F08EFF3020FFF7DD
:100F700075FF0A2000F088FF2020FFF76FFF0A208E
:100F800000F082FF2820FFF769FF012000F07CFFBE
:100F90000820FFF763FF012000F076FF0120FFF734
:100FA0005DFF012000F070FF012000F06DFF0620C2
:100FB000FFF754FF012000F067FF0C20FFF74EFF02
:100FC00000BF80BD80B582B000AF786006E07B686E
:100FD0005A1C7A601B781846FFF770FF7B681B78F5
:100FE000002BF4D100BF00BF0837BD4680BD000014
:100FF00080B582B000AF524B7B6000F0D3FE00F0B2
:10100000BDF800F07BF900F021F900F04DF9FFF791
:101010009CFFFFF783FF00BF4A4800F0D4F9034666
:10102000012BF9D04849474800F026FA642000F027
:101030002BFF8020FFF712FF4448FFF7C3FF7868BB
:10104000FFF782FA02460B463846414903F090FA10
:101050003B461846FFF7B6FF3E48FFF7B3FFC020F8
:10106000FFF7FCFE3C48FFF7ADFF7868FFF76CFA2E
:1010700002460B463846364903F07AFA3B46184694
:10108000FFF7A0FF3348FFF79DFF8B20FFF7E6FE39
:101090003248FFF797FF324B1B681846FFF754FAA8
:1010A00002460B4638462A4903F062FA3B46184688
:1010B000FFF788FF2748FFF785FF8620FFF7CEFE62
:1010C0002848FFF77FFF284B1B681846FFF73CFABC
:1010D00002460B4638461E4903F04AFA3B4618467C
:1010E000FFF770FFC620FFF7B9FE2048FFF76AFF41
:1010F0001F4B1B681846FFF727FA02460B46384677
:10110000134903F035FA3B461846FFF75BFFCB2047
:10111000FFF7A4FE1748FFF755FF174B1B6818464B
:10112000FFF712FA02460B463846094903F020FA47
:101130003B461846FFF746FFFA2000F0A5FE71E790
:101140007F6A9C3F1C010020B80100201455000854
:101150001855000820550008245500082855000897
:10116000100200202C550008140200203055000801
:1011700018020020345500081C02002080B594B0ED
:1011800000AF07F1200330220021184603F0E8F9F0
:1011900007F10C0300221A605A609A60DA601A6143
:1011A0000023BB60274B1B6C264A43F0805313641B
:1011B000244B1B6C03F08053BB60BB6800237B6037
:1011C000214B1B68204A43F4404313601E4B1B68AD
:1011D00003F440437B607B6801233B624FF4803320
:1011E0007B620223BB634FF48003FB6308233B64F1
:1011F000AA237B640223BB640423FB6407F120035E
:10120000184602F029FA0346002B01D000F0D6F868
:101210000F23FB6002233B6100237B614FF480536B
:10122000BB610023FB6107F10C030221184602F0A9
:101230008BFC0346002B01D000F0C0F800BF5037F4
:10124000BD4680BD003802400070004080B500AF50
:10125000124B134A1A60114B124A5A600F4B00226C
:101260009A600E4B0022DA600C4B4FF480421A61F8
:101270000A4B00225A61094B00229A61074B002257
:10128000DA61064B00221A62044801F0A5F8034611
:10129000002B01D000F092F800BF80BD1C0100209F
:1012A00000540040A086010080B500AF114B124AE7
:1012B0001A60104B4FF4E1325A600E4B00229A60D4
:1012C0000C4B0022DA600B4B00221A61094B0C22F6
:1012D0005A61084B00229A61064B0022DA610548E8
:1012E00002F052FE0346002B01D000F067F800BF69
:1012F00080BD00BF700100200044004080B58AB06E
:1013000000AF07F1140300221A605A609A60DA6095
:101310001A6100233B61274B1B6B264A43F0800375
:101320001363244B1B6B03F080033B613B69002379
:10133000FB60204B1B6B1F4A43F0010313631D4BE3
:101340001B6B03F00103FB60FB680023BB60194BC0
:101350001B6B184A43F008031363164B1B6B03F017
:101360000803BB60BB6800237B60124B1B6B114AF8
:1013700043F0020313630F4B1B6B03F002037B600C
:101380007B6800224FF470410B4801F00BF84FF4DA
:1013900070437B610123BB610023FB6100233B623F
:1013A00007F114031946044800F078FE00BF2837FF
:1013B000BD4680BD00380240000C024080B400AF42
:1013C00072B600BFFEE780B588B004AF78606423D2
:1013D00002930123019307F10F0300930123752268
:1013E000D021786801F034FBFB7B682B3DD10023D2
:1013F000BB73642302930123019307F10E0300934F
:1014000001236B22D021786801F028FA0723BB73EF
:10141000642302930123019307F10E030093012338
:101420001922D021786801F019FA0023BB736423D4
:1014300002930123019307F10E03009301231C2261
:10144000D021786801F00AFA0023BB736423029369
:101450000123019307F10E03009301231B22D021E6
:10146000786801F0FBF9002300E0012318461037EB
:10147000BD4680BD000000002DE9B04F94B004AF20
:1014800078603960642302930E23019307F1080307
:10149000009301233B22D021786801F0D9FA3B7AEE
:1014A0001B021AB27B7A1BB213431AB23B681A8032
:1014B000BB7A1B021AB2FB7A1BB213431AB23B6807
:1014C0005A803B7B1B021AB27B7B1BB213431AB2BE
:1014D0003B689A80BB7B1B021AB2FB7B1BB2134397
:1014E000FB863B7C1B021AB27B7C1BB213431AB2F5
:1014F0003B681A84BB7C1B021AB2FB7C1BB21343F1
:101500001AB23B685A843B7D1B021AB27B7D1BB228
:1015100013431AB23B689A843B68B3F9003018460B
:10152000FFF700F84FF00002BD4BFFF78FF90246BE
:101530000B463968C1E902233B68B3F9023018460B
:10154000FEF7F0FF4FF00002B54BFFF77FF90246C0
:101550000B463968C1E904233B68B3F904301846E7
:10156000FEF7E0FFA8A3D3E90023FFF76FF90246D7
:101570000B463968C1E90623B7F9363007EE903AD1
:10158000B8EEE77ADFEDA76AC7EE267A9FEDA67A76
:1015900077EE877A3B68C3ED107A3B68B3F9203069
:1015A0001846FEF7BFFF9AA3D3E90023FFF74EF9D1
:1015B00002460B463968C1E90A233B68B3F9223079
:1015C0001846FEF7AFFF92A3D3E90023FFF73EF9D9
:1015D00002460B463968C1E90C233B68B3F9243055
:1015E0001846FEF79FFF8AA3D3E90023FFF72EF9E1
:1015F00002460B463968C1E90E2300F039FC024669
:101600008A4B1B68D31A1846FEF77CFF4FF0000286
:10161000874BFFF71BF902460B46C7E90A2300F088
:1016200027FC0346814A13603B68B3F900301A4631
:101630003B68B3F9003003FB02F23B68B3F90430B6
:1016400019463B68B3F9043001FB03F31344184611
:10165000FEF768FF02460B4643EC102B03F0A3FD98
:1016600087ED080B4FF000024FF00003D7E90801A7
:10167000FFF72AFA0346002B1FD13B68B3F902306B
:101680001846FEF74FFFD7E90823FFF7DFF80246B9
:101690000B4643EC172BB0EE470AF0EE670A03F057
:1016A000D7FB51EC100B5CA3D3E90023FEF7A4FF9A
:1016B00002460B46C7E90E2305E04FF000024FF04B
:1016C0000003C7E90E233B68B3F900305B421846BC
:1016D000FEF728FF82468B463B68B3F90430184674
:1016E000FEF720FF02460B4643EC112B4BEC10ABF0
:1016F00003F057FD51EC100B47A3D3E90023FEF78D
:101700007BFF02460B46C7E906234FF00002494B18
:10171000D7E90601FFF7E2F90346002B0AD03B6840
:10172000D3E914014FF00002434BFFF7F5F90346EC
:10173000002B14D14FF000023F4BD7E90601FFF711
:10174000EBF90346002B15D03B68D3E914014FF0A9
:101750000002384BFFF7C2F90346002B0AD0374985
:10176000D7E90623C1E906233968D7E90623C1E989
:10177000142314E03B6893ED0C7B97ED0A2BB0EE3D
:10178000471AF0EE671A97ED060B2C4800F05AF84E
:10179000B0EE407AF0EE607A3B6883ED147B3B68F4
:1017A000D3E91423904623F000494FF00002224B66
:1017B00040464946FFF7B0F90346002B08D03B6886
:1017C000D3E90A23144683F000453B68C3E90A4580
:1017D0003B6893ED0C7B97ED0A2BB0EE471AF0EEC9
:1017E000671A97ED0E0B164800F02CF8B0EE407A11
:1017F000F0EE607A3B6883ED127B00BF4037BD4658
:10180000BDE8B08FAFF30080000000000029CC409D
:101810000000000000606040F8C1631ADCA54C4085
:101820000000D0400000AA43B81E1242200200204F
:1018300000408F40008056C0008056404800002085
:1018400000000020B0B596B000AFF86187ED040B42
:1018500087ED021B87ED002BFB69D3E90823D7E94D
:101860000201FEF711FD02460B46C7E91423FB698E
:10187000D3E90645D7E91423D7E90001FEF7BCFEFA
:1018800002460B4620462946FEF700FD02460B465F
:10189000F969C1E90623FB69D3E90A45FB69D3E984
:1018A0001001D7E90023FEF7A7FE02460B461046BB
:1018B0001946FB69D3E90C23FEF7E6FC02460B460A
:1018C00010461946FB69D3E90E23FEF7DDFC0246FC
:1018D0000B4610461946FB69D3E90023FEF7D6FCF8
:1018E00002460B4610461946D7E90023FEF784FE50
:1018F00002460B4620462946FEF7C8FC02460B4628
:10190000F969C1E90A23FB69D3E90C45FB69D3E90D
:101910001001D7E90023FEF76FFE02460B46204672
:101920002946FEF7B1FC02460B46F969C1E90C23D2
:10193000FB69D3E90E45FB69D3E91001D7E9002320
:10194000FEF75AFE02460B4620462946FEF79CFC4F
:1019500002460B46F969C1E90E23FB69D3E910453C
:10196000FB69D3E90201D7E90023FEF745FE0246F1
:101970000B4620462946FEF789FC02460B46F969CC
:10198000C1E91023FB69D3E90A01FB69D3E9042308
:10199000FEF77CFC02460B46C7E91223FB69D3E93C
:1019A0000A01D7E91223FEF751FF02460B46C7E9A9
:1019B0000823FB69D3E90E01D7E91223FEF746FF9E
:1019C00002460B46C7E90A23FB69D3E90623D7E998
:1019D0000401FEF759FC02460B46C7E91023FB69D8
:1019E000D3E90645D7E90801D7E91023FEF704FE3D
:1019F00002460B4620462946FEF748FC02460B46A7
:101A0000F969C1E90623FB69D3E90845D7E90A0169
:101A1000D7E91023FEF7F0FD02460B462046294683
:101A2000FEF734FC02460B46F969C1E90823FB695D
:101A3000D3E90A23C7E90E23FB69D3E90C23C7E9DD
:101A40000C23FB69D3E90A45D7E90801D7E90E233E
:101A5000FEF7D2FD02460B4620462946FEF714FC4F
:101A600002460B46F969C1E90A23FB69D3E90C4533
:101A7000D7E90801D7E90C23FEF7BEFD02460B4665
:101A800020462946FEF700FC02460B46F969C1E9EB
:101A90000C23FB69D3E90E45D7E90A01D7E90E23E8
:101AA000FEF7AAFD02460B4620462946FEF7ECFB50
:101AB00002460B46F969C1E90E23FB69D3E91045DB
:101AC000D7E90A01D7E90C23FEF796FD02460B463B
:101AD00020462946FEF7D8FB02460B46F969C1E9C4
:101AE0001023FB69D3E9062343EC172BB0EE470A1A
:101AF000F0EE670A5837BD46B0BD000080B483B031
:101B000000AF00237B60104B5B6C0F4A43F48043B3
:101B100053640D4B5B6C03F480437B607B68002354
:101B20003B60094B1B6C084A43F080531364064B1F
:101B30001B6C03F080533B603B6800BF0C37BD4615
:101B40005DF8047B704700BF0038024080B58AB062
:101B500000AF786007F1140300221A605A609A609F
:101B6000DA601A617B681B68194A93422BD1002303
:101B70003B61184B1B6B174A43F002031363154B71
:101B80001B6B03F002033B613B69C0237B611223A3
:101B9000BB610023FB6103233B6204237B6207F1EB
:101BA000140319460C4800F079FA0023FB60094B36
:101BB0001B6C084A43F400131364064B1B6C03F4BC
:101BC0000013FB60FB6800BF2837BD4680BD00BF27
:101BD00000540040003802400004024080B58AB042
:101BE00000AF786007F1140300221A605A609A600F
:101BF000DA601A617B681B68194A93422BD1002373
:101C00003B61184B1B6C174A43F400331364154BAC
:101C10001B6C03F400333B613B690023FB60114BF9
:101C20001B6B104A43F0010313630E4B1B6B03F055
:101C30000103FB60FB680C237B610223BB61002373
:101C4000FB6103233B6207237B6207F11403194600
:101C5000054800F023FA00BF2837BD4680BD00BF0D
:101C600000440040003802400000024080B400AF51
:101C7000FEE780B400AFFEE780B400AFFEE780B4BB
:101C800000AFFEE780B400AFFEE780B400AF00BF56
:101C9000BD465DF8047B704780B400AF00BFBD4611
:101CA0005DF8047B704780B400AF00BFBD465DF8AF
:101CB000047B704780B500AF00F0C6F800BF80BD60
:101CC00080B586B000AF7860144A154BD31A7B619B
:101CD0007B693B61134B1B68002B02D1114B124AED
:101CE0001A60104B1A687B6813443A699A4207D20B
:101CF00002F00CFC03460C221A604FF0FF3309E09F
:101D0000084B1B68FB60074B1A687B681344054A45
:101D10001360FB6818461837BD4680BD00000220DE
:101D200000040000240200204002002080B400AF24
:101D3000064BD3F88830054A43F47003C2F8883064
:101D400000BFBD465DF8047B704700BF00ED00E0BA
:101D5000DFF834D00D480E490E4A002302E0D45873
:101D6000C4500433C4188C42F9D30B4A0B4C0023E3
:101D700001E013600432A242FBD3FFF7D7FF02F069
:101D8000CBFBFFF735F97047000002200000002070
:101D90000001002008560008000100203C0200203D
:101DA000FEE7000080B500AF0E4B1B680D4A43F400
:101DB000007313600B4B1B680A4A43F48063136083
:101DC000084B1B68074A43F480731360032000F03C
:101DD00031F90F2000F008F8FFF790FE00231846B5
:101DE00080BD00BF003C024080B582B000AF78608B
:101DF000124B1A68124B1B7819464FF47A73B3FBD7
:101E0000F1F3B2FBF3F3184600F03BF90346002B65
:101E100001D001230EE07B680F2B0AD800227968DD
:101E20004FF0FF3000F011F9064A7B681360002381
:101E300000E0012318460837BD4680BD9000002011
:101E4000980000209400002080B400AF064B1B785F
:101E50001A46064B1B681344044A136000BFBD4674
:101E60005DF8047B704700BF980000202802002026
:101E700080B400AF034B1B681846BD465DF8047B79
:101E8000704700BF2802002080B584B000AF7860A2
:101E9000FFF7EEFFB8607B68FB60FB68B3F1FF3FC4
:101EA00005D00A4B1B781A46FB681344FB6000BF41
:101EB000FFF7DEFF0246BB68D31AFA689A42F7D8EA
:101EC00000BF00BF1037BD4680BD00BF9800002096
:101ED00080B485B000AF78607B6803F00703FB60D7
:101EE0000C4BDB68BB60BA684FF6FF031340BB6066
:101EF000FB681A02BB68134343F0BF6343F400332B
:101F0000BB60044ABB68D36000BF1437BD465DF8B0
:101F1000047B704700ED00E080B400AF044BDB6849
:101F20001B0A03F007031846BD465DF8047B7047A3
:101F300000ED00E080B483B000AF03463960FB7170
:101F400097F90730002B0ADB3B68DAB20C4997F9A6
:101F500007301201D2B20B4483F800230AE03B6839
:101F6000DAB20849FB7903F00F03043B1201D2B245
:101F70000B441A7600BF0C37BD465DF8047B7047F2
:101F800000E100E000ED00E080B489B000AFF8604F
:101F9000B9607A60FB6803F00703FB61FB69C3F17A
:101FA0000703042B28BF0423BB61FB690433062B02
:101FB00002D9FB69033B00E000237B614FF0FF3255
:101FC000BB6902FA03F3DA43BB681A407B699A40A3
:101FD0004FF0FF317B6901FA03F3D9437B680B4073
:101FE000134318462437BD465DF8047B7047000054
:101FF00080B582B000AF78607B68013BB3F1807F31
:1020000001D301230FE00A4A7B68013B53600F2193
:102010004FF0FF30FFF78EFF054B00229A60044B14
:1020200007221A60002318460837BD4680BD00BF4E
:1020300010E000E080B582B000AF78607868FFF70C
:1020400047FF00BF0837BD4680BD80B586B000AFF2
:102050000346B9607A60FB7300237B61FFF75CFF86
:1020600078617A68B9687869FFF78EFF024697F958
:102070000F3011461846FFF75DFF00BF1837BD4609
:1020800080BD80B582B000AF78607868FFF7B0FFA0
:10209000034618460837BD4680BD000080B489B0AD
:1020A00000AF7860396000237B6100233B6100232F
:1020B000BB610023FB6159E10122FB6902FA03F3D2
:1020C0007B613B681B687A6913403B613A697B69B5
:1020D0009A4240F048813B685B6803F00303012BA0
:1020E00005D03B685B6803F00303022B30D17B68AB
:1020F0009B68BB61FB695B00032202FA03F3DB43CD
:10210000BA691340BB613B68DA68FB695B0002FA9D
:1021100003F3BA691343BB617B68BA699A607B6851
:102120005B68BB610122FB6902FA03F3DB43BA6916
:102130001340BB613B685B681B0903F00102FB694C
:1021400002FA03F3BA691343BB617B68BA695A6048
:102150003B685B6803F00303032B17D07B68DB68E5
:10216000BB61FB695B00032202FA03F3DB43BA693C
:102170001340BB613B689A68FB695B0002FA03F39A
:10218000BA691343BB617B68BA69DA603B685B6814
:1021900003F00303022B23D1FB69DA087B680832C2
:1021A00053F82230BB61FB6903F007039B000F2249
:1021B00002FA03F3DB43BA691340BB613B681A6957
:1021C000FB6903F007039B0002FA03F3BA691343A8
:1021D000BB61FB69DA087B680832B96943F82210F1
:1021E0007B681B68BB61FB695B00032202FA03F397
:1021F000DB43BA691340BB613B685B6803F00302D1
:10220000FB695B0002FA03F3BA691343BB617B68A5
:10221000BA691A603B685B6803F44033002B00F036
:10222000A2800023FB60574B5B6C564A43F480430B
:102230005364544B5B6C03F48043FB60FB68524A6D
:10224000FB699B08023352F82330BB61FB6903F042
:1022500003039B000F2202FA03F3DB43BA69134026
:10226000BB617B68494A934219D07B68484A9342D4
:1022700013D07B68474A93420DD07B68464A93420D
:1022800007D07B68454A934201D1042308E0072325
:1022900006E0032304E0022302E0012300E0002320
:1022A000FA6902F0030292009340BA691343BB61DA
:1022B0003549FB699B080233BA6941F82320384B42
:1022C0009B68BB613B69DB43BA691340BB613B68F8
:1022D0005B6803F48013002B03D0BA693B69134396
:1022E000BB612F4ABB6993602D4BDB68BB613B69C7
:1022F000DB43BA691340BB613B685B6803F40013BE
:10230000002B03D0BA693B691343BB61244ABB6904
:10231000D360234B5B68BB613B69DB43BA69134005
:10232000BB613B685B6803F40033002B03D0BA69E0
:102330003B691343BB611A4ABB695360184B1B6866
:10234000BB613B69DB43BA691340BB613B685B68B7
:1023500003F48033002B03D0BA693B691343BB619C
:102360000F4ABB691360FB690133FB61FB690F2BEB
:102370007FF6A2AE00BF00BF2437BD465DF8047BE8
:10238000704700BF003802400038014000000240A2
:102390000004024000080240000C0240001002400D
:1023A000003C014080B483B000AF78600B467B8076
:1023B00013467B707B78002B03D07A887B689A6108
:1023C00003E07B881A047B689A6100BF0C37BD4626
:1023D0005DF8047B7047000080B584B000AF786082
:1023E0007B68002B01D101232BE17B6893F83D3002
:1023F000DBB2002B06D17B68002283F83C20786892
:10240000FFF7A4FB7B68242283F83D207B681B68D0
:102410001A687B681B6822F001021A607B681B68DF
:102420001A687B681B6842F400421A607B681B686C
:102430001A687B681B6822F400421A6001F07CFD78
:10244000F8607B685B68814A934207D8FB68804AE2
:10245000934294BF01230023DBB206E0FB687D4A70
:10246000934294BF01230023DBB2002B01D0012350
:10247000E7E0FB68784AA2FB03239B0CBB607B6808
:102480001B685B6823F03F017B681B68BA680A43DE
:102490005A607B681B681B6A23F03F017B685B689E
:1024A0006A4A934202D8BB68013309E0BB684FF423
:1024B000967202FB03F3694AA2FB03239B090133D3
:1024C0007A6812680B4313627B681B68DB6923F42C
:1024D0004F4222F0FF027B685B685C498B4219D84F
:1024E000FB68591E7B685B685B00B1FBF3F3591C0A
:1024F00040F6FC730B40002B0AD0FB68591E7B682A
:102500005B685B00B1FBF3F30133C3F30B0351E0F2
:1025100004234FE07B689B68002B11D1FB68581E99
:102520007B6859680B465B000B44B0FBF3F3013347
:10253000C3F30B03002B0CBF01230023DBB212E01B
:10254000FB68581E7B6859680B469B000B4499003A
:102550000B44B0FBF3F30133C3F30B03002B0CBFAD
:1025600001230023DBB2002B01D0012322E07B6892
:102570009B68002B0ED1FB68581E7B6859680B4680
:102580005B000B44B0FBF3F30133C3F30B0343F4E1
:1025900000430FE0FB68581E7B6859680B469B00A0
:1025A0000B4499000B44B0FBF3F30133C3F30B036B
:1025B00043F44043796809681343CB617B681B6827
:1025C0001B6823F0C0017B68DA697B681B6A1A43C9
:1025D0007B681B680A431A607B681B689B6823F44E
:1025E000034323F0FF037A6811697A68D2681143C4
:1025F0007A6812680B4393607B681B68DB6823F082
:10260000FF017B685A697B689B691A437B681B687A
:102610000A43DA607B681B681A687B681B6842F0B3
:1026200001021A607B6800221A647B68202283F80A
:102630003D207B6800221A637B68002283F83E20DD
:10264000002318461037BD4680BD00BFA08601009C
:102650007F841E00FF083D0083DE1B43D34D6210C4
:1026600080B588B002AFF8607A601A460B467B816D
:1026700013463B81FFF7FCFB7861FB6893F83D3024
:10268000DBB2202B40F0E0807B690093192301220C
:102690007049F86800F002FE0346002B01D00223C7
:1026A000D3E0FB6893F83C30012B01D10223CCE04E
:1026B000FB68012283F83C20FB681B681B6803F061
:1026C0000103012B07D0FB681B681A68FB681B68B5
:1026D00042F001021A60FB681B681A68FB681B68FD
:1026E00022F400621A60FB68212283F83D20FB6817
:1026F000102283F83E20FB6800221A64FB687A6887
:102700005A62FB683A895A85FB685B8D9AB2FB680E
:102710001A85FB68504ADA6279897B693A6AF868F7
:1027200000F0BCFB0346002B01D001238DE0002309
:102730003B61FB681B685B693B61FB681B689B69CD
:102740003B613B6966E07A69396AF86800F07CFEB3
:102750000346002B0DD0FB681B6C042B07D1FB68D4
:102760001B681A68FB681B6842F400721A60012338
:102770006BE0FB685B6A1A78FB681B681A61FB6890
:102780005B6A5A1CFB685A62FB685B8D9BB2013B1B
:102790009AB2FB685A85FB681B8D013B9AB2FB68B5
:1027A0001A85FB681B685B6903F00403042B1BD1CB
:1027B000FB681B8D002B17D0FB685B6A1A78FB68DF
:1027C0001B681A61FB685B6A5A1CFB685A62FB68EB
:1027D0005B8D9BB2013B9AB2FB685A85FB681B8DEF
:1027E000013B9AB2FB681A857A69396AF86800F089
:1027F0006CFE0346002B0DD0FB681B6C042B07D12D
:10280000FB681B681A68FB681B6842F400721A6058
:1028100001231AE0FB681B8D002B94D1FB681B6819
:102820001A68FB681B6842F400721A60FB68202279
:1028300083F83D20FB68002283F83E20FB680022DD
:1028400083F83C20002300E0022318461837BD46D9
:1028500080BD00BF020010000000FFFF80B588B0FF
:1028600002AFF860084611461A4603467B810B46C4
:102870003B811346FB80FFF7FBFA7861FB6893F816
:102880003D30DBB2202B40F0D9807B6900931923C7
:1028900001226D49F86800F001FD0346002B01D0CC
:1028A0000223CCE0FB6893F83C30012B01D10223DA
:1028B000C5E0FB68012283F83C20FB681B681B68AD
:1028C00003F00103012B07D0FB681B681A68FB6843
:1028D0001B6842F001021A60FB681B681A68FB68FB
:1028E0001B6822F400621A60FB68212283F83D20F5
:1028F000FB68402283F83E20FB6800221A64FB68D4
:102900003A6A5A62FB68BA8C5A85FB685B8D9AB248
:10291000FB681A85FB684D4ADA62F8883A8979893A
:102920007B690193BB6A00930346F86800F038FBAB
:102930000346002B52D0012381E07A69B96AF86816
:1029400000F082FD0346002B0DD0FB681B6C042BAE
:1029500007D1FB681B681A68FB681B6842F40072A9
:102960001A6001236BE0FB685B6A1A78FB681B68DE
:102970001A61FB685B6A5A1CFB685A62FB681B8D14
:10298000013B9AB2FB681A85FB685B8D9BB2013BE9
:102990009AB2FB685A85FB681B685B6903F0040305
:1029A000042B1BD1FB681B8D002B17D0FB685B6AC7
:1029B0001A78FB681B681A61FB685B6A5A1CFB6823
:1029C0005A62FB681B8D013B9AB2FB681A85FB6853
:1029D0005B8D9BB2013B9AB2FB685A85FB681B8DED
:1029E000002BAAD17A69B96AF86800F06EFD034637
:1029F000002B0DD0FB681B6C042B07D1FB681B68F8
:102A00001A68FB681B6842F400721A60012316E022
:102A1000FB681B681A68FB681B6842F400721A6046
:102A2000FB68202283F83D20FB68002283F83E20CB
:102A3000FB68002283F83C20002300E002231846B4
:102A40001837BD4680BD00BF020010000000FFFF28
:102A500080B58CB002AFF860084611461A460346AE
:102A60007B810B463B811346FB80FFF701FA7862BE
:102A7000FB6893F83D30DBB2202B40F008827B6A84
:102A80000093192301227B49F86800F007FC0346F4
:102A9000002B01D00223FBE1FB6893F83C30012BB3
:102AA00001D10223F4E1FB68012283F83C20FB689A
:102AB0001B681B6803F00103012B07D0FB681B6830
:102AC0001A68FB681B6842F001021A60FB681B6809
:102AD0001A68FB681B6822F400621A60FB682222F5
:102AE00083F83D20FB68402283F83E20FB680022EB
:102AF0001A64FB683A6B5A62FB68BA8E5A85FB68A7
:102B00005B8D9AB2FB681A85FB685B4ADA62F888CB
:102B10003A8979897B6A0193BB6B00930346F86815
:102B200000F0D4FA0346002B01D00123B0E1FB688A
:102B30001B8D002B13D100233B62FB681B685B6974
:102B40003B62FB681B689B693B623B6AFB681B68D6
:102B50001A68FB681B6842F400721A6084E1FB6823
:102B60001B8D012B1BD1FB681B681A68FB681B6857
:102B700022F480621A600023FB61FB681B685B69BA
:102B8000FB61FB681B689B69FB61FB69FB681B6859
:102B90001A68FB681B6842F400721A6064E1FB6803
:102BA0001B8D022B1BD1FB681B681A68FB681B6816
:102BB00022F480621A60FB681B681A68FB681B6855
:102BC00042F400621A600023BB61FB681B685B690A
:102BD000BB61FB681B689B69BB61BB6944E1002367
:102BE0007B61FB681B685B697B61FB681B689B6999
:102BF0007B617B6938E1FB681B8D032B00F2F18060
:102C0000FB681B8D012B23D17A6AB96BF86800F041
:102C10009DFC0346002B01D0012339E1FB681B68B2
:102C20001A69FB685B6AD2B21A70FB685B6A5A1C4D
:102C3000FB685A62FB681B8D013B9AB2FB681A85E0
:102C4000FB685B8D9BB2013B9AB2FB685A850BE136
:102C5000FB681B8D022B4ED17B6A0093BB6B00225D
:102C60000649F86800F01AFB0346002B08D0012340
:102C70000EE100BF020010000000FFFF0400010091
:102C8000FB681B681A68FB681B6842F400721A60D4
:102C9000FB681B681A69FB685B6AD2B21A70FB6832
:102CA0005B6A5A1CFB685A62FB681B8D013B9AB237
:102CB000FB681A85FB685B8D9BB2013B9AB2FB688F
:102CC0005A85FB681B681A69FB685B6AD2B21A7086
:102CD000FB685B6A5A1CFB685A62FB681B8D013BF0
:102CE0009AB2FB681A85FB685B8D9BB2013B9AB276
:102CF000FB685A85B8E07B6A0093BB6B002266498B
:102D0000F86800F0CBFA0346002B01D00123BFE0A6
:102D1000FB681B681A68FB681B6822F480621A60F3
:102D2000FB681B681A69FB685B6AD2B21A70FB68A1
:102D30005B6A5A1CFB685A62FB681B8D013B9AB2A6
:102D4000FB681A85FB685B8D9BB2013B9AB2FB68FE
:102D50005A857B6A0093BB6B00224F49F86800F0EC
:102D60009DFA0346002B01D0012391E0FB681B680C
:102D70001A68FB681B6842F400721A60FB681B68E3
:102D80001A69FB685B6AD2B21A70FB685B6A5A1CEC
:102D9000FB685A62FB681B8D013B9AB2FB681A857F
:102DA000FB685B8D9BB2013B9AB2FB685A85FB685E
:102DB0001B681A69FB685B6AD2B21A70FB685B6AAF
:102DC0005A1CFB685A62FB681B8D013B9AB2FB6878
:102DD0001A85FB685B8D9BB2013B9AB2FB685A85F2
:102DE00042E07A6AB96BF86800F0B0FB0346002B4A
:102DF00001D001234CE0FB681B681A69FB685B6A21
:102E0000D2B21A70FB685B6A5A1CFB685A62FB6894
:102E10001B8D013B9AB2FB681A85FB685B8D9BB2E8
:102E2000013B9AB2FB685A85FB681B685B6903F03B
:102E30000403042B18D1FB681B681A69FB685B6AE2
:102E4000D2B21A70FB685B6A5A1CFB685A62FB6854
:102E50001B8D013B9AB2FB681A85FB685B8D9BB2A8
:102E6000013B9AB2FB685A85FB681B8D002B7FF4EF
:102E7000C2AEFB68202283F83D20FB68002283F865
:102E80003E20FB68002283F83C20002300E0022360
:102E900018462837BD4680BD0400010080B588B0C3
:102EA00002AFF8607A603B600B467B81FB68DB6AAF
:102EB0007B617B69082B06D07B69012B03D07B6982
:102EC00013F5803F08D1FB681B681A68FB681B6814
:102ED00042F480721A600BE0FB681B6B122B07D167
:102EE000FB681B681A68FB681B6842F480721A60F2
:102EF0003B6800937B6800224FF00111F86800F0F6
:102F0000CDF90346002B0DD0FB681B681B6803F44A
:102F10008073B3F5807F03D1FB684FF400721A64AD
:102F2000032335E0FB681B69B3F5804F08D17B892B
:102F3000DBB21A46FB681B6802F0FE021A611BE056
:102F40007B89DB11DBB203F00603DBB263F00F0316
:102F5000DAB2FB681B681A613B687A680E49F86848
:102F600000F0F3F90346002B01D0012310E07B8928
:102F7000DAB2FB681B681A613B687A680749F8682F
:102F800000F0E3F90346002B01D0012300E0002309
:102F900018461837BD4680BD080001000200010038
:102FA00080B588B002AFF860084611461A4603465D
:102FB0007B810B463B811346FB80FB681B681A68CC
:102FC000FB681B6842F480721A607B6A00933B6A5C
:102FD00000224FF00111F86800F060F90346002B61
:102FE0000DD0FB681B681B6803F48073B3F5807F0A
:102FF00003D1FB684FF400721A6403235FE07B89FE
:10300000DBB21A46FB681B6802F0FE021A617B6A9B
:103010003A6A2D49F86800F098F90346002B01D070
:1030200001234CE000237B61FB681B685B697B61CB
:10303000FB681B689B697B617B697A6A396AF868FF
:1030400000F002FA0346002B0DD0FB681B6C042B2A
:1030500007D1FB681B681A68FB681B6842F40072A2
:103060001A6001232BE0FB88012B05D13B89DAB2E2
:10307000FB681B681A6121E03B891B0A9BB2DAB22C
:10308000FB681B681A617A6A396AF86800F0DCF933
:103090000346002B0DD0FB681B6C042B07D1FB688B
:1030A0001B681A68FB681B6842F400721A600123EF
:1030B00005E03B89DAB2FB681B681A6100231846F9
:1030C0001837BD4680BD00BF0200010080B588B042
:1030D00002AFF860084611461A4603467B810B464C
:1030E0003B811346FB80FB681B681A68FB681B6802
:1030F00042F480621A60FB681B681A68FB681B68F0
:1031000042F480721A607B6A00933B6A00224FF09F
:103110000111F86800F0C2F80346002B0DD0FB68DF
:103120001B681B6803F48073B3F5807F03D1FB68D1
:103130004FF400721A640323AAE07B89DBB21A46BB
:10314000FB681B6802F0FE021A617B6A3A6A524908
:10315000F86800F0FAF80346002B01D0012397E04D
:1031600000237B61FB681B685B697B61FB681B68F4
:103170009B697B617B697A6A396AF86800F064F957
:103180000346002B0DD0FB681B6C042B07D1FB689A
:103190001B681A68FB681B6842F400721A600123FE
:1031A00076E0FB88012B05D13B89DAB2FB681B680E
:1031B0001A6121E03B891B0A9BB2DAB2FB681B68EB
:1031C0001A617A6A396AF86800F03EF90346002B02
:1031D0000DD0FB681B6C042B07D1FB681B681A68B9
:1031E000FB681B6842F400721A60012350E03B89BF
:1031F000DAB2FB681B681A617A6A396AF86800F00B
:1032000023F90346002B0DD0FB681B6C042B07D160
:10321000FB681B681A68FB681B6842F400721A603E
:10322000012335E0FB681B681A68FB681B6842F4E1
:1032300080721A607B6A00933B6A00224FF0011192
:10324000F86800F02BF80346002B0DD0FB681B68D4
:103250001B6803F48073B3F5807F03D1FB684FF4E0
:1032600000721A64032313E07B89DBB243F001038D
:10327000DAB2FB681B681A617B6A3A6A0649F86829
:1032800000F063F80346002B01D0012300E0002387
:1032900018461837BD4680BD0200010080B584B0D5
:1032A00000AFF860B9603B601346FB7125E03B68F6
:1032B000B3F1FF3F21D0FEF7DBFD0246BB69D31A15
:1032C0003A689A4202D33B68002B16D1FB68002271
:1032D0001A63FB68202283F83D20FB68002283F8F4
:1032E0003E20FB681B6C43F02002FB681A64FB68FD
:1032F000002283F83C20012323E0BB681B0CDBB2D7
:10330000012B0DD1FB681B685B69DA43BB68134076
:103310009BB2002B0CBF01230023DBB21A460CE04A
:10332000FB681B689B69DA43BB6813409BB2002BA8
:103330000CBF01230023DBB21A46FB799A42B6D0B8
:10334000002318461037BD4680BD80B584B000AF5D
:10335000F860B9607A603B6051E0FB681B685B69AC
:1033600003F48063B3F5806F23D1FB681B681A6890
:10337000FB681B6842F400721A60FB681B686FF4FC
:1033800080625A61FB6800221A63FB68202283F87E
:103390003D20FB68002283F83E20FB681B6C43F055
:1033A0000402FB681A64FB68002283F83C200123B6
:1033B00046E07B68B3F1FF3F21D0FEF759FD02469E
:1033C0003B68D31A7A689A4202D37B68002B16D1E5
:1033D000FB6800221A63FB68202283F83D20FB680B
:1033E000002283F83E20FB681B6C43F02002FB6840
:1033F0001A64FB68002283F83C20012320E0BB68AC
:103400001B0CDBB2012B0CD1FB681B685B69DA4338
:10341000BB6813409BB2002B14BF01230023DBB217
:103420000BE0FB681B689B69DA43BB6813409BB2E7
:10343000002B14BF01230023DBB2002B8DD100230E
:1034400018461037BD4680BD80B584B000AFF86027
:10345000B9607A602DE0F86800F0CEF80346002BE2
:1034600001D001232DE0BB68B3F1FF3F21D0FEF76F
:10347000FFFC02467B68D31ABA689A4202D3BB6843
:10348000002B16D1FB6800221A63FB68202283F808
:103490003D20FB68002283F83E20FB681B6C43F054
:1034A0002002FB681A64FB68002283F83C20012399
:1034B00007E0FB681B685B6903F08003802BCAD1BF
:1034C000002318461037BD4680BD80B584B000AFDC
:1034D000F860B9607A602DE0F86800F08DF8034676
:1034E000002B01D001232DE0BB68B3F1FF3F21D0B9
:1034F000FEF7BEFC02467B68D31ABA689A4202D332
:10350000BB68002B16D1FB6800221A63FB682022DF
:1035100083F83D20FB68002283F83E20FB681B6C8B
:1035200043F02002FB681A64FB68002283F83C2009
:10353000012307E0FB681B685B6903F00403042BAD
:10354000CAD1002318461037BD4680BD80B584B06F
:1035500000AFF860B9607A6042E0FB681B685B69A5
:1035600003F01003102B19D1FB681B686FF01002D9
:103570005A61FB6800221A63FB68202283F83D2011
:10358000FB68002283F83E20FB681A6CFB681A6413
:10359000FB68002283F83C20012329E0FEF768FC49
:1035A00002467B68D31ABA689A4202D3BB68002BE2
:1035B00016D1FB6800221A63FB68202283F83D20A5
:1035C000FB68002283F83E20FB681B6C43F020025E
:1035D000FB681A64FB68002283F83C20012307E0A3
:1035E000FB681B685B6903F04003402BB5D10023E7
:1035F00018461037BD4680BD80B483B000AF7860F8
:103600007B681B685B6903F48063B3F5806F1BD133
:103610007B681B686FF480625A617B6800221A63C2
:103620007B68202283F83D207B68002283F83E20BF
:103630007B681B6C43F004027B681A647B68002281
:1036400083F83C20012300E0002318460C37BD46D8
:103650005DF8047B7047000080B586B000AF7860ED
:103660007B68002B01D1012367E27B681B6803F0B4
:103670000103002B75D0884B9B6803F00C03042BCF
:103680000CD0854B9B6803F00C03082B12D1824BA6
:103690005B6803F48003B3F5800F0BD17E4B1B688E
:1036A00003F40033002B5BD07B685B68002B57D1A1
:1036B000012342E27B685B68B3F5803F06D1764B1D
:1036C0001B68754A43F4803313601DE07B685B68B8
:1036D000B3F5A02F0CD1704B1B686F4A43F48023C5
:1036E00013606D4B1B686C4A43F4803313600BE02E
:1036F000694B1B68684A23F480331360664B1B6870
:10370000654A23F4802313607B685B68002B13D029
:10371000FEF7AEFB386108E0FEF7AAFB02463B6904
:10372000D31A642B01D9032307E25B4B1B6803F414
:103730000033002BF0D014E0FEF79AFB386108E06C
:10374000FEF796FB02463B69D31A642B01D903238B
:10375000F3E1514B1B6803F40033002BF0D100E080
:1037600000BF7B681B6803F00203002B63D04A4B49
:103770009B6803F00C03002B0BD0474B9B6803F0B6
:103780000C03082B1CD1444B5B6803F48003002B13
:1037900016D1414B1B6803F00203002B05D07B6858
:1037A000DB68012B01D00123C7E13B4B1B6823F0F1
:1037B000F8027B681B69DB00374913430B603AE072
:1037C0007B68DB68002B20D0344B01221A60FEF7A7
:1037D0004FFB386108E0FEF74BFB02463B69D31A0A
:1037E000022B01D90323A8E12B4B1B6803F0020332
:1037F000002BF0D0284B1B6823F0F8027B681B6974
:10380000DB00254913430B6015E0244B00221A60AE
:10381000FEF72EFB386108E0FEF72AFB02463B6903
:10382000D31A022B01D9032387E11B4B1B6803F03A
:103830000203002BF0D17B681B6803F00803002B08
:1038400036D07B685B69002B16D0154B01221A60BD
:10385000FEF70EFB386108E0FEF70AFB02463B6903
:10386000D31A022B01D9032367E10B4B5B6F03F0E3
:103870000203002BF0D01BE0094B00221A60FEF778
:10388000F7FA38610EE0FEF7F3FA02463B69D31A05
:10389000022B07D9032350E10038024000004742C1
:1038A000800E4742884B5B6F03F00203002BEAD186
:1038B0007B681B6803F00403002B00F09780002353
:1038C000FB75814B1B6C03F08053002B0FD1002341
:1038D000BB607D4B1B6C7C4A43F0805313647A4B76
:1038E0001B6C03F08053BB60BB680123FB75774BF7
:1038F0001B6803F48073002B18D1744B1B68734A48
:1039000043F480731360FEF7B3FA386108E0FEF702
:10391000AFFA02463B69D31A022B01D903230CE10B
:103920006A4B1B6803F48073002BF0D07B689B68A4
:10393000012B06D1644B1B6F634A43F001031367ED
:103940001CE07B689B68052B0CD15F4B1B6F5E4AAC
:1039500043F0040313675C4B1B6F5B4A43F00103A6
:1039600013670BE0584B1B6F574A23F00103136793
:10397000554B1B6F544A23F0040313677B689B6805
:10398000002B15D0FEF774FA38610AE0FEF770FAE2
:1039900002463B69D31A41F28832934201D903238C
:1039A000CBE0494B1B6F03F00203002BEED014E079
:1039B000FEF75EFA38610AE0FEF75AFA02463B6902
:1039C000D31A41F28832934201D90323B5E03E4B2A
:1039D0001B6F03F00203002BEED1FB7D012B05D101
:1039E000394B1B6C384A23F0805313647B689B6906
:1039F000002B00F0A180344B9B6803F00C03082BD4
:103A00005CD07B689B69022B41D1314B00221A604C
:103A1000FEF72EFA386108E0FEF72AFA02463B6903
:103A2000D31A022B01D9032387E0274B1B6803F02D
:103A30000073002BF0D17B68DA697B681B6A1A433C
:103A40007B685B6A9B011A437B689B6A5B08013B4E
:103A50001B041A437B68DB6A1B061B4913434B603C
:103A60001B4B01221A60FEF703FA386108E0FEF7EB
:103A7000FFF902463B69D31A022B01D903235CE00C
:103A8000114B1B6803F00073002BF0D054E0104B77
:103A900000221A60FEF7ECF9386108E0FEF7E8F959
:103AA00002463B69D31A022B01D9032345E0064B9A
:103AB0001B6803F00073002BF0D13DE07B689B692D
:103AC000012B07D1012338E000380240007000408C
:103AD000600047421B4B5B68FB607B689B69012B66
:103AE00028D0FB6803F480027B68DB699A4221D10D
:103AF000FB6803F03F027B681B6A9A421AD1FA689E
:103B000047F6C07313407A68526A9201934211D10A
:103B1000FB6803F440327B689B6A5B08013B1B0433
:103B20009A4207D1FB6803F070627B68DB6A1B0670
:103B30009A4201D0012300E0002318461837BD4601
:103B400080BD00BF0038024080B584B000AF78600F
:103B500039607B68002B01D10123CCE0684B1B68E6
:103B600003F007033A689A420CD9654B3A68D2B21F
:103B70001A70634B1B6803F007033A689A4201D03E
:103B80000123B8E07B681B6803F00203002B20D000
:103B90007B681B6803F00403002B05D0594B9B681E
:103BA000584A43F4E05393607B681B6803F00803B2
:103BB000002B05D0534B9B68524A43F460439360FB
:103BC000504B9B6823F0F0027B689B684D49134380
:103BD0008B607B681B6803F00103002B44D07B687B
:103BE0005B68012B07D1474B1B6803F40033002BA4
:103BF00019D101237FE07B685B68022B03D07B68CF
:103C00005B68032B07D13F4B1B6803F00073002B4D
:103C100009D101236FE03B4B1B6803F00203002B2B
:103C200001D1012367E0374B9B6823F003027B68D7
:103C30005B68344913438B60FEF71AF9F8600AE0B9
:103C4000FEF716F90246FB68D31A41F28832934216
:103C500001D903234FE02B4B9B6803F00C027B68D8
:103C60005B689B009A42EBD1254B1B6803F007036E
:103C70003A689A420CD2224B3A68D2B21A70204B60
:103C80001B6803F007033A689A4201D0012332E02F
:103C90007B681B6803F00403002B08D0194B9B685A
:103CA00023F4E0527B68DB68164913438B607B6822
:103CB0001B6803F00803002B09D0124B9B6823F408
:103CC00060427B681B69DB000E4913438B6000F088
:103CD00021F802460B4B9B681B0903F00F030A49AE
:103CE000CB5C22FA03F3094A1360094B1B681846A0
:103CF000FEF77AF8002318461037BD4680BD00BF96
:103D0000003C024000380240385500089000002076
:103D1000940000202DE9B04F94B000AF00237B64E5
:103D20000023FB6400233B640023BB64794B9B6846
:103D300003F00C03082B0DD0082B00F2E180002BC0
:103D400002D0042B03D0DBE0734BBB64DBE0734B8E
:103D5000BB64D8E06F4B5B6803F03F037B646D4B43
:103D60005B6803F48003002B63D06A4B5B689B099C
:103D70000022BB63FA63BB6BC3F308033B630023FE
:103D80007B63D7E90C4522462B464FF000004FF0ED
:103D90000001590141EAD261500102460B46214619
:103DA000511A3961294663EB01037B614FF0000230
:103DB0004FF00003D7E904AB59468B01514643EA63
:103DC000916351468A015146B2EB0108594663EBB3
:103DD00001094FF000024FF000034FEAC90343EA24
:103DE00058734FEAC80290469946234618EB0303DE
:103DF000BB602B4649EB0303FB604FF000024FF022
:103E00000003D7E9024529464B02214643EAD15334
:103E100021464A02104619467B6C0022BB62FA62B8
:103E2000D7E90A23FCF798FE02460B461346FB64CB
:103E300058E0384B5B689B09002218461146C0F3D6
:103E400008033B6200237B62D7E9088942464B4660
:103E50004FF000004FF00001590141EAD2615001DA
:103E600002460B464146B2EB010A494663EB010BA1
:103E70004FF000024FF000034FEA8B1343EA9A63BE
:103E80004FEA8A12B2EB0A0463EB0B054FF0000213
:103E90004FF00003EB0043EA5473E20014461D4662
:103EA0004346E3183B604B4645EB03037B604FF012
:103EB00000024FF00003D7E9004529468B02214656
:103EC00043EA915321468A02104619467B6C002230
:103ED000BB61FA61D7E90623FCF73EFE02460B46BA
:103EE0001346FB640B4B5B681B0C03F003030133AD
:103EF0005B003B64FA6C3B6CB2FBF3F3BB6402E027
:103F0000054BBB6400BFBB6C18465037BD46BDE8CF
:103F1000B08F00BF003802400024F40000127A0085
:103F200080B400AF034B1B681846BD465DF8047BA8
:103F3000704700BF9000002080B500AFFFF7F0FF92
:103F40000246054B9B689B0A03F007030349CB5CC1
:103F500022FA03F3184680BD003802404855000895
:103F600080B500AFFFF7DCFF0246054B9B685B0B9B
:103F700003F007030349CB5C22FA03F3184680BD24
:103F8000003802404855000880B582B000AF786024
:103F90007B68002B01D101233FE07B6893F83D3023
:103FA000DBB2002B06D17B68002283F83C207868C6
:103FB000FDF714FE7B68242283F83D207B681B6894
:103FC000DA687B681B6822F40052DA60786800F0D7
:103FD00029F87B681B681A697B681B6822F4904289
:103FE0001A617B681B685A697B681B6822F02A0289
:103FF0005A617B681B68DA687B681B6842F4005270
:10400000DA607B6800221A647B68202283F83D20F6
:104010007B68202283F83E20002318460837BD46DF
:1040200080BD00002DE9B04FC0B000AFC7F8F4006C
:10403000D7F8F4301B681B6923F44050D7F8F430EC
:10404000D968D7F8F4301A6840EA01031361D7F849
:10405000F4309A68D7F8F4301B691A43D7F8F43073
:104060005B691A43D7F8F430DB691343C7F8F830BB
:10407000D7F8F4301B68DB6823F4164121F00C01FB
:10408000D7F8F4301A68D7F8F8300B43D360D7F874
:10409000F4301B685B6923F44070D7F8F4309969F9
:1040A000D7F8F4301A6840EA01035361D7F8F430C6
:1040B0001A688F4B9A4205D0D7F8F4301A688D4BA6
:1040C0009A4204D1FFF74CFFC7F8FC0003E0FFF76A
:1040D00033FFC7F8FC00D7F8F430DB69B3F5004FC5
:1040E00040F00C81D7F8FC300022C7F8E830C7F860
:1040F000EC20D7E93A4522462B469118B9655B4139
:10410000FB65D7E91623214612EB0108294643EB4C
:1041100001094FF000024FF000034FEAC90343EAE0
:1041200058734FEAC80290469946234618EB03039A
:10413000C7F8E0302B4649EB0303C7F8E430D7F863
:10414000F4305B680022C7F8D830C7F8DC20D7E924
:1041500036120B46DB183B65134642EB03037B65C7
:10416000D7E91423D7E93801FCF7F6FC02460B46E1
:10417000614BA3FB02235B091C01D7F8FC30002232
:10418000C7F8D030C7F8D420D7E9348942464B4627
:104190009118B9645B41FB64D7E91223414612EBE5
:1041A000010A494643EB010B4FF000024FF00003B8
:1041B0004FEACB0343EA5A734FEACA0292469B4640
:1041C00043461AEB0303C7F8C8304B464BEB0303D7
:1041D000C7F8CC30D7F8F4305B680022C7F8C0309D
:1041E000C7F8C420D7E930120B46DB183B641346EE
:1041F00042EB03037B64D7E91023D7E93201FCF7D4
:10420000ABFC02460B4611463B4BA3FB01235B096B
:10421000642202FB03F3CB1ADB0003F13202364BBC
:10422000A3FB02235B095B0003F4F8731C44D7F87B
:10423000FC300022C7F8B830C7F8BC20D7E92E8977
:1042400042464B469118B9635B41FB63D7E90E23A5
:1042500041465118396349464B417B634FF0000298
:104260004FF00003D7E90CAB5946CB00514643EA67
:1042700051735146CA0010461946034642469B18E0
:10428000C7F8B0304B460A4642EB0303C7F8B430D8
:10429000D7F8F4305B680022C7F8A830C7F8AC2024
:1042A000D7E92A120B46DB18BB62134642EB030325
:1042B000FB62D7E90A23D7E92C01FCF74DFC024643
:1042C0000B460D4BA3FB02135B09642101FB03F3B7
:1042D000D31ADB003233084AA2FB03235B0903F045
:1042E0000702D7F8F4301B6822449A6005E100BF4A
:1042F00000100140001401401F85EB51D7F8FC303D
:104300000022C7F8A030C7F8A420D7E92889424680
:104310004B46911839625B417B62D7E908234146DD
:104320005418494643EB01054FF000024FF00003DB
:10433000EB0043EA5473E20014461D464346E3187B
:10434000C7F898304B4645EB0303C7F89C30D7F8C5
:10435000F4305B680022C7F89030C7F894204FF023
:1043600000024FF00003D7E9244529468B0021467F
:1043700043EA917321468A00D7E92601FCF7ECFB5A
:1043800002460B46604BA3FB02235B091C01D7F8D6
:10439000FC300022C7F88830C7F88C20D7E9228982
:1043A00042464B469118B9615B41FB61D7E9062350
:1043B00041465118396149464B417B614FF000023B
:1043C0004FF00003D7E904AB5946CB00514643EA0E
:1043D00051735146CA0010461946034642469B187F
:1043E000C7F880304B460A4642EB0303C7F88430D7
:1043F000D7F8F4305B680022BB67FA674FF0000221
:104400004FF00003D7E91E8949468B00414643EA35
:10441000917341468A00D7E92001FCF79DFB0246D3
:104420000B46394BA3FB02135B09642101FB03F329
:10443000D31A1B013233344AA2FB03235B0903F076
:10444000F0031C44D7F8FC3000223B677A67D7E9B9
:104450001C8942464B469118B9605B41FB60D7E925
:10446000022341465118396049464B417B604FF069
:1044700000024FF00003D7E900AB5946CB0051468C
:1044800043EA51735146CA00104619460346424654
:104490009B18BB664B460A4642EB0303FB66D7F804
:1044A000F4305B6800223B667A664FF000024FF002
:1044B0000003D7E9188949468B00414643EA9173C6
:1044C00041468A00D7E91A01FCF746FB02460B4633
:1044D0000D4BA3FB02135B09642101FB03F3D31A09
:1044E0001B013233084AA2FB03235B0903F00F02CE
:1044F000D7F8F4301B6822449A6000BF07F5807734
:10450000BD46BDE8B08F00BF1F85EB51014B186859
:10451000704700BF9C00002070B50D4D0D4C641B12
:10452000A4100026A64209D10B4D0C4C00F0E4FF6C
:10453000641BA4100026A64205D170BD55F8043BAB
:1045400098470136EEE755F8043B98470136F2E705
:1045500000560008005600080056000804560008DF
:1045600002440346934200D1704703F8011BF9E768
:104570000EB400B59CB01DAB029006906FF00041E8
:10458000094807910491094953F8042B05910068E3
:10459000019302A900F068F8029B00221A701CB077
:1045A0005DF804EB03B070479C0000200802FFFF99
:1045B0002DE9F0478E689E4282460C4690461F4683
:1045C00038D88A8912F4906F32D025680969A5EB32
:1045D0000109656905EB450505EBD57501334B44CC
:1045E0006D109D4238BF1D46530531D5294600F058
:1045F00063FB064650B90C23CAF80030A38943F088
:104600004003A3814FF0FF30BDE8F08721694A469F
:1046100000F0BEFAA38923F4906343F08003A381E2
:10462000266165614E44A5EB09052660A5603E46FE
:10463000BE4200D93E4620683246414600F0B6FAF6
:10464000A3689B1BA3602368334423600020DBE73F
:104650002A4600F0A5FB06460028E1D12169504614
:1046600000F0BEFAC7E700002DE9F04F98468B89AD
:104670001B069DB007460D4614460ED50B6963B95F
:10468000402100F019FB2860286120B90C233B6011
:104690004FF0FF30D1E040236B61002309932023CA
:1046A0008DF82930CDF80C803023DFF8A8818DF803
:1046B0002A304FF0010923469A4613F8012B0AB11C
:1046C000252AF9D1BAEB040B0BD05B4622462946CA
:1046D0003846FFF76DFF013000F0AA80099A5A446E
:1046E00009929AF80030002B00F0A28000234FF0CE
:1046F000FF32CDE905230AF1010A049307938DF8EF
:1047000053301A935446052214F8011B5148FBF705
:1047100067FD049AD8B9D00644BF20238DF85330E2
:10472000110744BF2B238DF853309AF800302A2B01
:1047300015D0079A544600204FF00A0C214611F874
:10474000013B303B092B4ED9B0B1079214E0A0EBEE
:10475000080309FA03F313430493A246D2E7039B29
:10476000191D1B680391002BBBBF5B4242F0020284
:1047700007930793B8BF049223782E2B0CD163784C
:104780002A2B35D1039B1A1D1B680392002BB8BF3F
:104790004FF0FF3302340593DFF8C8A021780322DD
:1047A0005046FBF71DFD40B14023A0EB0A0003FA81
:1047B00000F0049B03430134049314F8011B2648C2
:1047C0008DF828100622FBF70BFD002838D0234B6C
:1047D0001BBB039B073323F0070308330393099B99
:1047E0003344099367E70CFB02320C460120A5E72E
:1047F00000230134059319464FF00A0C204610F8A7
:10480000012B303A092A03D9002BC5D00591C3E703
:104810000CFB012104460123F0E703AB00932A4679
:104820000F4B04A93846AFF30080421C0646D6D190
:10483000AB895B063FF52CAF09981DB0BDE8F08F42
:1048400003AB00932A46064B04A9384600F07AF8D9
:10485000EBE700BF505500085A5500080000000063
:10486000B1450008565500082DE9F047164699460F
:104870008A680B69DDF820809342B8BF1346336025
:1048800091F8432007460C460AB101333360236890
:10489000990642BF336802333360256815F0060578
:1048A00006D104F1190AE36832689B1AAB4226DC90
:1048B00094F84320131E226818BF012392062BD4BC
:1048C00004F1430249463846C04701301ED02368F0
:1048D000E568326803F00603042B08BFAD1AA3682D
:1048E00022690CBF25EAE57500259342C4BF9B1AD7
:1048F000ED1800261A34B5421AD1002008E0012331
:10490000524649463846C047013003D14FF0FF3088
:10491000BDE8F0870135C6E7E1185A1C302081F860
:104920004300224494F8451082F843100233C7E74D
:104930000123224649463846C0470130E6D00136B9
:10494000D9E700002DE9FF470F7E0C9D782F914697
:1049500080460C469A4601F1430207D8622F0AD8D6
:10496000002F00F0D880582F00F0A38004F14205FA
:1049700084F842703AE0A7F16303152BF6D801A141
:1049800051F823F0DD490008F14900086D4900089D
:104990006D4900086D4900086D490008F14900089B
:1049A0006D4900086D4900086D4900086D4900080F
:1049B000FD4A0008214A0008DF4A00086D49000846
:1049C0006D4900081F4B00086D490008214A000886
:1049D0006D4900086D490008E74A00082B681A1D58
:1049E0001B682A6004F1420584F842300123A3E0E9
:1049F00020682968060601F104030AD50E682B60B9
:104A0000002E03DA2D23764284F843305E480A23D1
:104A100019E00E682B6010F0400F18BF36B2EFE7B8
:104A20002B682068191D2960010601D51E6802E067
:104A30004606FBD51E8854486F2F0CBF08230A2357
:104A4000002184F843106568A560002DA2BF21688D
:104A500021F0040121600EB9002D4DD01546B6FBA2
:104A6000F3F103FB1167C75D05F8017D3746BB42D3
:104A70000E46F4D9082B0BD12368DE0708D523692D
:104A800061689942DEBF302305F8013C05F1FF352E
:104A9000521B2261CDF800A04B4603AA2146404696
:104AA000FFF7E2FE01304CD14FF0FF3004B0BDE81B
:104AB000F087354881F845702968236851F8046B00
:104AC00029601D0614D5DF0744BF43F0200323608F
:104AD0001EB9236823F0200323601023B0E7236866
:104AE00043F0200323607823284884F84530E3E727
:104AF000590648BFB6B2E6E71546BBE72B682668FD
:104B00006169181D286035061B6801D5196002E02F
:104B10007006FBD51980002323611546BAE72B6880
:104B20001A1D2A601D68626800212846FBF758FBA1
:104B300008B1401B606063682361002384F8433040
:104B4000A8E723692A4649464046D0470130ABD002
:104B500023689B0713D4E068039B9842B8BF1846AC
:104B6000A4E70123324649464046D04701309BD056
:104B70000135E36803995B1AAB42F2DCEBE70025F1
:104B800004F11906F5E700BF6155000872550008E9
:104B90000A44914200F1FF3300D1704710B511F87B
:104BA000014B03F8014F9142F9D110BD884210B575
:104BB00001EB020402D98442234607D8431EA142D6
:104BC00008D011F8012B03F8012FF8E70244014641
:104BD0008A4200D110BD13F8014D02F8014DF7E7EC
:104BE00037B5002944D051F8043C0190002BA1F1C5
:104BF0000404B8BFE41800F013F91E4A01981368C2
:104C000033B96360146003B0BDE8304000F00EB902
:104C1000A34208D9256861198B4201BF19685B68F6
:104C200049192160EDE71A465B680BB1A342FAD936
:104C300011685518A5420BD1246821445418A34289
:104C40001160E0D11C685B68536021441160DAE7B1
:104C500002D90C230360D6E7256861198B4204BF93
:104C600019685B68636004BF491921605460CAE732
:104C700003B030BD2C02002070B50E4E0C463168DA
:104C8000054611B900F0BCF830602146284600F016
:104C9000B7F8431C0AD0C41C24F00304A04207D078
:104CA000211A284600F0ACF8013001D14FF0FF3452
:104CB000204670BD300200202DE9F041CD1C25F0CA
:104CC000030508350C2D38BF0C25002D074601DBE8
:104CD000A94205D90C233B6000263046BDE8F0818F
:104CE0002E4E00F09DF833681C4634BB29463846EA
:104CF000FFF7C2FF431C04464DD134682646002E00
:104D000040D123683146384604EB030800F078F8B8
:104D100080453AD1216803356D1A25F00305083521
:104D20000C2D38BF0C2529463846FFF7A5FF01306A
:104D30002BD023682B4423600EE02268521B1ED424
:104D40000B2A16D96119A342256018BF5960636800
:104D500008BF316062514B60384604F10B0600F029
:104D600065F826F00706231DF21AB6D09B1BA35048
:104D7000B3E76268A3420CBF32605A60ECE7234697
:104D80006468B2E734467668B9E70C233B6038467E
:104D900000F04CF8A1E72560DEE700BF2C02002000
:104DA0002DE9F041804614460E4621B9BDE8F04198
:104DB0001146FFF781BF2AB9FFF712FF25462846A3
:104DC000BDE8F08100F038F88442074602D8B4EB21
:104DD000500F12D821464046FFF76EFF05460028C7
:104DE000EDD0BC422246314628BF3A46FFF7D0FEFE
:104DF00031464046FFF7F4FEE1E73546DFE70000C5
:104E000038B5064D0023044608462B60FCF758FFD2
:104E1000431C02D12B6803B1236038BD340200204B
:104E2000014800F011B800BF38020020014800F02E
:104E30000CB800BF3802002051F8043C181F002BAA
:104E4000BCBF0B58C0187047704770470000000087
:104E50002DE9F84F55EC104BC34B25F000469E4210
:104E6000AB4618DDC14B9E4201DC09D144B122465C
:104E70002B4620462946FBF709FA04460D4606E074
:104E8000BBF1000F00F331819BA5D5E9004545EC4E
:104E9000104BBDE8F88FB64B9E4214DCA3F1DE73D5
:104EA0009E420DDC96A3D3E9002310EE100A29469A
:104EB000FBF7ECF9AF4B0022FBF72EFE0028E6D102
:104EC0004FF0FF3A2BE000F063F9AB4B9E4255ECFC
:104ED000104B00F3BF80A3F550239E4200F3A08047
:104EE00010EE102A10EE100A2B462946FBF7CEF9D9
:104EF000A04B0022FBF7C8F9002206460F464FF0F0
:104F0000804320462946FBF7C1F902460B4630464E
:104F10003946FBF79BFC4FF0000A04460D4622463B
:104F20002B4620462946FBF767FB02460B46804688
:104F30008946FBF761FB74A3D3E9002306460F46BD
:104F4000FBF75AFB72A3D3E90023FBF79FF9324624
:104F50003B46FBF751FB70A3D3E90023FBF796F91F
:104F600032463B46FBF748FB6DA3D3E90023FBF732
:104F70008DF932463B46FBF73FFB6BA3D3E9002399
:104F8000FBF784F932463B46FBF736FB68A3D3E9CF
:104F90000023FBF77BF942464B46FBF72DFB66A34C
:104FA000D3E900238046894630463946FBF724FB87
:104FB00063A3D3E90023FBF767F932463B46FBF7CF
:104FC0001BFB61A3D3E90023FBF75EF932463B46A6
:104FD000FBF712FB5EA3D3E90023FBF755F932463A
:104FE0003B46FBF709FB5CA3D3E90023FBF74CF935
:104FF00032463B46FBF700FB02460B46404649461D
:10500000FBF744F922462B46FBF7F6FABAF1FF3FCD
:1050100002460B464BD120462946FBF735F92CE7D3
:1050200010EE100A534B00222946FBF72DF9514B85
:1050300006460F46002220462946FBF727F902467E
:105040000B4630463946FBF701FC4FF0010A044697
:105050000D4664E7494B9E421DDA10EE100A484B9C
:1050600000222946FBF710F9454B06460F46002261
:1050700020462946FBF7C0FA3E4B0022FBF706F913
:1050800002460B4630463946FBF7E0FB4FF0020A7A
:1050900004460D4643E72B4610EE102A39490020FE
:1050A000FBF7D4FB4FF0030A04460D4637E7364BB7
:1050B000364E06EBCA0603EBCA0ADAE90023FBF711
:1050C000E3F822462B46FBF7DFF802460B46D6E90B
:1050D0000001FBF7D9F8BBF1000F04460D46BFF6FF
:1050E000D6AE01F100431D46D1E61DA5D5E9004528
:1050F000CDE600BFAFF30080182D4454FB21F9BF6B
:105100009C7500883CE4377E11DA22E33AAD903F8B
:10511000EB0D76244B7BA93F513DD0A0660DB13FEE
:105120006E204CC5CD45B73FFF8300922449C23F56
:105130000D5555555555D53F2F6C6A2C44B4A2BF1B
:105140009AFDDE522DDEAD3F6D9A74AFF2B0B33FE3
:10515000711623FEC671BC3FC4EB98999999C93F5B
:10516000182D4454FB21F93FFFFF0F440000F07F4E
:10517000FFFFDB3F0000F03FFFFFF23F00800340F6
:105180000000F83F0000F0BFA8550008885500084F
:1051900051EC100B10EE102A21F0004343EC102BC1
:1051A000704700F02DB838B52DED028B55EC104B43
:1051B00000F0F0F822462B4620462946B0EE408A01
:1051C000F0EE608AFBF7B2FC90B900220023204683
:1051D0002946FBF783FC58B1FFF798F921230360B8
:1051E0000022002310461946FBF730FB41EC180B58
:1051F000B0EE480AF0EE680ABDEC028B38BD000044
:105200002DE9F84357EC116B7342DFF884E127F086
:105210000042334342EAD373734551EC100B11EE55
:10522000108A0AD8444221F00043044343EAD4746C
:10523000744510EE109A8C4607D932463B46FBF770
:1052400025F841EC100BBDE8F88307F1404404F564
:105250008014344303D1BDE8F843FFF7F9BDBC1710
:1052600004F0020453EA090944EAD17407D1022C7C
:1052700060D0032CE5D142A1D1E90001E1E752EA77
:10528000080806D1BCF1000F5FDA3FA1D1E90001A7
:10529000D7E772450FD1934204F1FF3407D1022CB6
:1052A0004CD8354B03EBC404D4E90001C9E7022C08
:1052B00048D8324BF6E77345E4D09B1AB3F1747FBC
:1052C0004FEA23521EDA002F01DA3C321EDB32464F
:1052D0003B46FBF7BBFA41EC100BFFF759FFFFF71A
:1052E000B7FD51EC100B012C13D0022C15D0002C63
:1052F000A7D019A3D3E90023FAF7C6FF18A3D3E96F
:10530000002314E018A1D1E90001ECE700200021FE
:10531000E9E701F10043194693E70FA3D3E900231E
:10532000FAF7B2FF02460B460DA1D1E90001FAF7E8
:10533000ABFF86E70AA1D1E9000182E70CA1D1E920
:1053400000017EE7002000217BE707A1D1E90001F1
:1053500077E700BFAFF30080075C143326A6A13CBB
:10536000182D4454FB210940182D4454FB21F93FCA
:10537000182D4454FB21E93FC8550008E0550008AA
:10538000182D4454FB2109C0182D4454FB21F9BFAA
:105390000000F07F2DE9F04155EC104B554EAE4327
:1053A00010EE100A10EE103A2A46294610D110EEDF
:1053B000102A2B46FBF720F902460B4620462946C9
:1053C000FAF764FF04460D4645EC104BBDE8F0814A
:1053D000002D10DC25F000463043F5D05DB110EE15
:1053E000102A2B4610EE100AFAF74EFF02460B4623
:1053F000FBF72CFAE6E7121574D0D407C1F31301BA
:10540000A2F2FF3741F480115EBFDA0F5B0002EBBE
:1054100041010024DA0F02EB41017F105B001625E9
:1054200020464FF4001286188E42DEBF891BB0184A
:10543000A4184900013D01EBD3714FEA52024FEA33
:105440004303F0D12A464FF0200E4FF00046814230
:1054500006EB050C02DC13D19C4511D8BCF1000F02
:105460000CEB060543DA002D41DB00F10108091AB7
:105470009C4588BF01F1FF31A3EB0C033244404649
:105480004FEAD37CBEF1010E0CEB41014FEA43031E
:105490004FEA5606DBD10B4306D0501C13BF013236
:1054A0000134724622F0010263105208E10703F151
:1054B0007F5303F5001348BF42F0004203EB07554A
:1054C000144681E7D90A15385B050029FAD0CD02C8
:1054D0000AD5C2F1200423FA04F4551E9340214357
:1054E000421B8AE71046F0E749000132EFE78046A9
:1054F000BDE700BF0000F07FF8B500BFF8BC08BCF6
:105500009E467047F8B500BFF8BC08BC9E46704781
:105510000000000041783D00252E326600000000AA
:105520006720000041793D00417A3D0047783D0009
:1055300047793D00477A3D00000000000000000070
:105540000102030406070809000000000102030429
:10555000232D302B2000686C4C006566674546475C
:1055600000303132333435363738394142434445DF
:10557000460030313233343536373839616263644E
:1055800065660000000000004FBB610567ACDD3FB1
:10559000182D4454FB21E93F9BF681D20B73EF3F5A
:1055A000182D4454FB21F93FE2652F227F2B7A3CD2
:1055B000075C143326A6813CBDCBF07A8807703C8B
:1055C000075C143326A6913C182D4454FB21E9BFF7
:1055D000D221337F7CD90240D221337F7CD902C0D3
:1055E0000000000000000080182D4454FB210940F9
:0855F000182D4454FB2109C0F1
:0855F80090B5FF7F01000000E7
:04560000C5010008D8
:04560400A1010008F8
:10560800000000E04D62503F000000C07493683F06
:10561800000000E051B89E3F0000000000000000BC
:105628000000000000000000000000000000000072
:105638000000000000000000000000000000000062
:105648000000000000000000000000E04D62503F34
:10565800000000C07493683F000000E051B89E3F0E
:105668000000000000000000000000000000000032
:105678000000000000000000000000000000000022
:105688000000000000000000000000000000000012
:105698000024F4001000000001000000A000002019
:1056A80000000000000000000000000000000000F2
:1056B80000000000000000000000000000000000E2
:1056C80000000000000000000000000000000000D2
:1056D80000000000000000000000000000000000C2
:1056E80000000000000000000000000000000000B2
:1056F80000000000000000000000000000000000A2
:0400000508001D5181
:00000001FF
