:020000040800F2
:1000000000000220591F0008551D00085B1D000854
:10001000611D0008671D00086D1D0008000000003C
:10002000000000000000000000000000731D000838
:10003000811D0008000000008F1D00089D1D0008A4
:10004000A91F0008A91F0008A91F0008A91F000870
:10005000A91F0008A91F0008A91F0008A91F000860
:10006000A91F0008A91F0008A91F0008A91F000850
:10007000A91F0008A91F0008A91F0008A91F000840
:10008000A91F0008A91F0008A91F00080000000000
:10009000000000000000000000000000A91F000890
:1000A000A91F0008A91F0008A91F0008A91F000810
:1000B000A91F0008A91F0008A91F0008A91F000800
:1000C000A91F0008A91F0008A91F0008A91F0008F0
:1000D000A91F0008A91F0008A91F000800000000B0
:1000E000A91F0008A91F0008A91F000800000000A0
:1000F000000000000000000000000000A91F000830
:1001000000000000A91F0008A91F0008A91F00087F
:1001100000000000000000000000000000000000DF
:10012000A91F0008A91F0008A91F0008A91F00088F
:10013000A91F0008000000000000000000000000EF
:10014000000000000000000000000000A91F0008DF
:10015000A91F0008A91F0008A91F0008A91F00085F
:10016000A91F0008A91F00080000000000000000EF
:10017000000000000000000000000000000000007F
:1001800000000000A91F000800000000000000009F
:08019000A91F0008A91F0008C7
:1001A00010B5054C237833B9044B13B10448AFF3B1
:1001B00000800123237010BD7002002000000000A9
:1001C0000097000808B5034B1BB103490348AFF380
:1001D000008008BD000000007402002000970008A5
:1001E000034613F8012B002AFBD1181A0138704777
:1001F00001F0FF01102A2BDB10F0070F08D010F8D8
:10020000013B013A8B422DD010F0070F42B3F6D1DB
:10021000F0B441EA012141EA014122F007047FF0F4
:1002200000070023F0E80256083C85EA010586EA4B
:10023000010685FA47F5A3FA87F586FA47F6A5FA87
:1002400087F68EB9EED1F0BC01F0FF0102F0070293
:1002500032B110F8013B013A83EA010313B1F8D13E
:100260000020704701387047002D06BF354603381F
:10027000073815F0010F07D1013015F4807F02BF58
:10028000013015F4C03F0130F0BC0138704700BFA9
:1002900081F0004102E000BF83F0004330B54FEA37
:1002A00041044FEA430594EA050F08BF90EA020FA4
:1002B0001FBF54EA000C55EA020C7FEA645C7FEA37
:1002C000655C00F0E2804FEA5454D4EB5555B8BF5A
:1002D0006D420CDD2C4480EA020281EA030382EACB
:1002E000000083EA010180EA020281EA0303362D5D
:1002F00088BF30BD11F0004F4FEA01314FF4801C30
:100300004CEA113102D0404261EB410113F0004F41
:100310004FEA03334CEA133302D0524263EB4303F8
:1003200094EA050F00F0A780A4F10104D5F1200E96
:100330000DDB02FA0EFC22FA05F2801841F10001F1
:1003400003FA0EF2801843FA05F359410EE0A5F1C5
:1003500020050EF1200E012A03FA0EFC28BF4CF0F6
:10036000020C43FA05F3C01851EBE37101F00045AC
:1003700007D54FF0000EDCF1000C7EEB00006EEBB9
:100380000101B1F5801F1BD3B1F5001F0CD3490843
:100390005FEA30004FEA3C0C04F101044FEA44529A
:1003A00012F5800F80F09A80BCF1004F08BF5FEA21
:1003B000500C50F1000041EB045141EA050130BD01
:1003C0005FEA4C0C404141EB0101013C28BFB1F513
:1003D000801FE9D291F0000F04BF01460020B1FA5E
:1003E00081F308BF2033A3F10B03B3F120020CDA31
:1003F0000C3208DD02F1140CC2F10C0201FA0CF00F
:1004000021FA02F10CE002F11402D8BFC2F1200C73
:1004100001FA02F120FA0CFCDCBF41EA0C01904029
:10042000E41AA2BF01EB0451294330BD6FEA040472
:100430001F3C1CDA0C340EDC04F11404C4F120025D
:1004400020FA04F001FA02F340EA030021FA04F36F
:1004500045EA030130BDC4F10C04C4F1200220FAC6
:1004600002F001FA04F340EA0300294630BD21FA04
:1004700004F0294630BD94F0000F83F4801306BFCA
:1004800081F480110134013D4EE77FEA645C18BFBE
:100490007FEA655C29D094EA050F08BF90EA020F55
:1004A00005D054EA000C04BF1946104630BD91EA4D
:1004B000030F1EBF0021002030BD5FEA545C05D150
:1004C0004000494128BF41F0004130BD14F580048F
:1004D0003CBF01F5801130BD01F0004545F0FE4103
:1004E00041F470014FF0000030BD7FEA645C1ABF38
:1004F000194610467FEA655C1CBF0B46024650EA6F
:10050000013406BF52EA033591EA030F41F400219A
:1005100030BD00BF90F0000F04BF0021704730B520
:100520004FF4806404F132044FF000054FF00001F5
:1005300050E700BF90F0000F04BF0021704730B5B6
:100540004FF4806404F1320410F0004548BF40428B
:100550004FF000013EE700BF42004FEAE2014FEAE0
:1005600031014FEA02701FBF12F07F4393F07F4FBB
:1005700081F06051704732F07F4208BF704793F0BE
:100580007F4F04BF41F40021704730B54FF46074D1
:1005900001F0004521F000411CE700BF50EA0102D4
:1005A00008BF704730B54FF000050AE050EA01027D
:1005B00008BF704730B511F0004502D5404261EBED
:1005C00041014FF4806404F132045FEA915C3FF42E
:1005D000D8AE4FF003025FEADC0C18BF03325FEACB
:1005E000DC0C18BF033202EBDC02C2F1200300FA7C
:1005F00003FC20FA02F001FA03FE40EA0E0021FAA1
:1006000002F11444BDE600BF70B54FF0FF0C4CF48E
:10061000E06C1CEA11541DBF1CEA135594EA0C0F40
:1006200095EA0C0F00F0DEF82C4481EA030621EA7B
:100630004C5123EA4C5350EA013518BF52EA0335B6
:1006400041F4801143F4801338D0A0FB02CE4FF068
:100650000005E1FB02E506F00042E0FB03E54FF098
:100660000006E1FB03569CF0000F18BF4EF0010E90
:10067000A4F1FF04B6F5007F64F5407404D25FEA8C
:100680004E0E6D4146EB060642EAC62141EA55513F
:100690004FEAC52040EA5E504FEACE2EB4F1FD0C81
:1006A00088BFBCF5E06F1ED8BEF1004F08BF5FEAFF
:1006B000500E50F1000041EB045170BD06F00046B1
:1006C00046EA010140EA020081EA0301B4EB5C045E
:1006D000C2BFD4EB0C0541EA045170BD41F4801156
:1006E0004FF0000E013C00F3AB8014F1360FDEBF7B
:1006F000002001F0004170BDC4F10004203C35DA57
:100700000C341BDC04F11404C4F1200500FA05F3D9
:1007100020FA04F001FA05F240EA020001F000427A
:1007200021F0004110EBD37021FA04F642EB0601F0
:100730005EEA430E08BF20EAD37070BDC4F10C041A
:10074000C4F1200500FA04F320FA05F001FA04F2DE
:1007500040EA020001F0004110EBD37041F10001CA
:100760005EEA430E08BF20EAD37070BDC4F12005D5
:1007700000FA05F24EEA020E20FA04F301FA05F23D
:1007800043EA020321FA04F001F0004121FA04F2E5
:1007900020EA020000EBD3705EEA430E08BF20EAB5
:1007A000D37070BD94F0000F0FD101F000464000EF
:1007B00041EB010111F4801F08BF013CF7D041EA71
:1007C000060195F0000F18BF704703F00046520075
:1007D00043EB030313F4801F08BF013DF7D043EA46
:1007E0000603704794EA0C0F0CEA135518BF95EAFC
:1007F0000C0F0CD050EA410618BF52EA4306D1D183
:1008000081EA030101F000414FF0000070BD50EAA1
:10081000410606BF1046194652EA430619D094EA2B
:100820000C0F02D150EA013613D195EA0C0F05D115
:1008300052EA03361CBF104619460AD181EA030169
:1008400001F0004141F0FE4141F470014FF0000021
:1008500070BD41F0FE4141F4780170BD70B54FF0BC
:10086000FF0C4CF4E06C1CEA11541DBF1CEA13553C
:1008700094EA0C0F95EA0C0F00F0A7F8A4EB05041E
:1008800081EA030E52EA03354FEA013100F0888015
:100890004FEA03334FF0805545EA131343EA1263DE
:1008A0004FEA022245EA111545EA10654FEA002693
:1008B0000EF000419D4208BF964244F1FD0404F54C
:1008C000407402D25B084FEA3202B61A65EB0305A8
:1008D0005B084FEA32024FF480104FF4002CB6EB65
:1008E000020E75EB030E22BFB61A754640EA0C00E5
:1008F0005B084FEA3202B6EB020E75EB030E22BF25
:10090000B61A754640EA5C005B084FEA3202B6EB65
:10091000020E75EB030E22BFB61A754640EA9C0024
:100920005B084FEA3202B6EB020E75EB030E22BFF4
:10093000B61A754640EADC0055EA060E18D04FEAB2
:10094000051545EA16754FEA06164FEAC30343EA52
:1009500052734FEAC2025FEA1C1CC0D111F4801F1F
:100960000BD141EA00014FF000004FF0004CB6E718
:1009700011F4801F04BF01430020B4F1FD0C88BFB7
:10098000BCF5E06F3FF6AFAEB5EB030C04BFB6EBC2
:10099000020C5FEA500C50F1000041EB045170BDB5
:1009A0000EF0004E4EEA113114EB5C04C2BFD4EBE2
:1009B0000C0541EA045170BD41F480114FF0000E66
:1009C000013C90E645EA060E8DE60CEA135594EAE2
:1009D0000C0F08BF95EA0C0F3FF43BAF94EA0C0FE5
:1009E0000AD150EA01347FF434AF95EA0C0F7FF45A
:1009F00025AF104619462CE795EA0C0F06D152EAAE
:100A000003353FF4FDAE1046194622E750EA410691
:100A100018BF52EA43067FF4C5AE50EA41047FF4A2
:100A20000DAF52EA43057FF4EBAE12E74FF0FF3C07
:100A300006E000BF4FF0010C02E000BF4FF0010CD8
:100A40004DF804CD4FEA410C7FEA6C5C4FEA430C51
:100A500018BF7FEA6C5C1BD001B050EA410C0CBFA0
:100A600052EA430C91EA030F02BF90EA020F002002
:100A7000704710F1000F91EA030F58BF994208BF69
:100A800090422CBFD8176FEAE37040F00100704726
:100A90004FEA410C7FEA6C5C02D150EA013C07D17D
:100AA0004FEA430C7FEA6C5CD6D152EA033CD3D0C8
:100AB0005DF8040B704700BF8446104662468C46C2
:100AC0001946634600E000BF01B5FFF7B7FF0028F5
:100AD00048BF10F1000F01BD4DF808EDFFF7F4FF1E
:100AE0000CBF012000205DF808FB00BF4DF808EDA9
:100AF000FFF7EAFF34BF012000205DF808FB00BFCC
:100B00004DF808EDFFF7E0FF94BF012000205DF8ED
:100B100008FB00BF4DF808EDFFF7CEFF94BF0120A2
:100B200000205DF808FB00BF4DF808EDFFF7C4FF9B
:100B300034BF012000205DF808FB00BF4FEA410CE4
:100B40007FEA6C5C02D150EA013C0AD14FEA430CC7
:100B50007FEA6C5C02D152EA033C02D14FF0000004
:100B600070474FF0010070474FEA410212F5001242
:100B700015D211D56FF47873B3EB625212D94FEAE4
:100B8000C12343F0004343EA505311F0004F23FACE
:100B900002F018BF404270474FF00000704750EA23
:100BA000013005D111F0004008BF6FF000407047E0
:100BB0004FF00000704700BF4A0011D212F500123A
:100BC00011D20DD56FF47873B3EB62520ED44FEAA5
:100BD000C12343F0004343EA505323FA02F0704725
:100BE0004FF00000704750EA013002D14FF0FF3063
:100BF00070474FF0000070474FEA4102B2F1E04306
:100C000024BFB3F5001CDCF1FE5C0DD901F0004CF3
:100C10004FEAC0024CEA5070B2F1004F40EB830043
:100C200008BF20F00100704711F0804F21D113F16F
:100C30003872BCBF01F00040704741F480114FEAA8
:100C40005252C2F11802C2F1200C10FA0CF320FA31
:100C500002F018BF40F001004FEAC1234FEAD3234E
:100C600003FA0CFC40EA0C0023FA02F34FEA4303B8
:100C7000CCE77FEA625307D150EA01331EBF4FF041
:100C8000FE4040F44000704701F0004040F0FE405C
:100C900040F40000704700BF53B94AB9002908BFAB
:100CA00000281CBF4FF0FF314FF0FF3000F0AAB911
:100CB000ADF1080C6DE904CE00F03CF8DDF804E07D
:100CC000DDE9022304B0704738B500220023044652
:100CD0000D46FFF70BFF28B920462946BDE83840EE
:100CE00000F00AB8204605F1004100F005F8404246
:100CF00061EB410138BD00BFD0B50C4B0022064668
:100D00000F46FFF781FCFFF757FF0446FFF702FC91
:100D1000074B0022FFF778FC02460B463046394667
:100D2000FFF7BAFAFFF748FF2146D0BD0000F03DBB
:100D30000000F0412DE9F047089D04468E46002B47
:100D40004DD18A42944669D9B2FA82F252B101FA7F
:100D500002F3C2F1200120FA01F10CFA02FC41EA8F
:100D6000030E94404FEA1C48210CBEFBF8F61FFA14
:100D70008CF708FB16E341EA034306FB07F19942AF
:100D80000AD91CEB030306F1FF3080F01F81994262
:100D900040F21C81023E63445B1AA4B2B3FBF8F03C
:100DA00008FB103344EA034400FB07F7A7420AD9C3
:100DB0001CEB040400F1FF3380F00A81A74240F2EB
:100DC00007816444023840EA0640E41B00261DB156
:100DD000D4400023C5E900433146BDE8F0878B428B
:100DE00009D9002D00F0EF800026C5E9000130464A
:100DF0003146BDE8F087B3FA83F6002E4AD18B4224
:100E000002D3824200F2F980841A61EB03030120CD
:100E10009E46002DE0D0C5E9004EDDE702B9FFDEB9
:100E2000B2FA82F2002A40F09280A1EB0C014FEA64
:100E30001C471FFA8CFE0126200CB1FBF7F307FBC1
:100E4000131140EA01410EFB03F0884208D91CEB64
:100E5000010103F1FF3802D2884200F2CB80434601
:100E6000091AA4B2B1FBF7F007FB101144EA0144E0
:100E70000EFB00FEA64508D91CEB040400F1FF316F
:100E800002D2A64500F2BB800846A4EB0E0440EA5D
:100E900003409CE7C6F12007B34022FA07FC4CEA66
:100EA000030C20FA07F401FA06F31C43F9404FEA59
:100EB0001C4900FA06F3B1FBF9F8200C1FFA8CFE6E
:100EC00009FB181140EA014108FB0EF0884202FAC2
:100ED00006F20BD91CEB010108F1FF3A80F0888083
:100EE000884240F28580A8F102086144091AA4B240
:100EF000B1FBF9F009FB101144EA014100FB0EFEC1
:100F00008E4508D91CEB010100F1FF346CD28E45EF
:100F10006AD90238614440EA0840A0FB0294A1EB80
:100F20000E01A142C846A64656D353D05DB1B3EBDD
:100F3000080261EB0E0101FA07F722FA06F3F1400D
:100F40001F43C5E9007100263146BDE8F087C2F1B4
:100F50002003D8400CFA02FC21FA03F3914001432C
:100F60004FEA1C471FFA8CFEB3FBF7F007FB103665
:100F70000B0C43EA064300FB0EF69E4204FA02F411
:100F800008D91CEB030300F1FF382FD29E422DD964
:100F9000023863449B1B89B2B3FBF7F607FB163399
:100FA00041EA034106FB0EF38B4208D91CEB010119
:100FB00006F1FF3816D28B4214D9023E6144C91A99
:100FC00046EA004638E72E46284605E70646E3E6A9
:100FD0001846F8E64B45A9D2B9EB020864EB0C0EB3
:100FE0000138A3E74646EAE7204694E74046D1E7C2
:100FF000D0467BE7023B614432E7304609E7644470
:10100000023842E7704700BF80B586B002AF0346A2
:10101000FB71FB7923F00F03FB73FB791B01BB739F
:10102000FB7B43F00C03DBB23B72FB7B43F008031A
:10103000DBB27B72BB7B43F00C03DBB2BB72BB7BCE
:1010400043F00803DBB2FB7207F10802642300934C
:1010500004234E21034801F007FC00BF1037BD46B2
:1010600080BD00BF8C02002080B586B002AF034671
:10107000FB71FB7923F00F03FB73FB791B01BB733F
:10108000FB7B43F00D03DBB23B72FB7B43F00903B8
:10109000DBB27B72BB7B43F00D03DBB2BB72BB7B6D
:1010A00043F00903DBB2FB7207F1080264230093EB
:1010B00004234E21034801F0D7FB00BF1037BD4683
:1010C00080BD00BF8C02002080B582B000AF002040
:1010D000FFF79AFF00237B6005E02020FFF7C4FFA5
:1010E0007B6801337B607B68632BF6DD00BF00BF4C
:1010F0000837BD4680BD80B500AF322000F0C8FF84
:101100003020FFF781FF052000F0C2FF3020FFF7FD
:101110007BFF012000F0BCFF3020FFF775FF0A20A5
:1011200000F0B6FF2020FFF76FFF0A2000F0B0FFAD
:101130002820FFF769FF012000F0AAFF0820FFF731
:1011400063FF012000F0A4FF0120FFF75DFF0120F5
:1011500000F09EFF012000F09BFF0620FFF754FFE8
:10116000012000F095FF0C20FFF74EFF00BF80BD6F
:1011700080B582B000AF786006E07B685A1C7A6068
:101180001B781846FFF770FF7B681B78002BF4D1A3
:1011900000BF00BF0837BD4680BD000080B582B0EB
:1011A00000AF00F003FF00F05BF800F019F900F069
:1011B000BFF800F0EBF8FFF79EFFFFF785FF00BFD9
:1011C000214800F072F90346012BF9D01F491E484F
:1011D00000F0C2F9642000F05BFF8020FFF714FFED
:1011E0001B48FFF7C5FF194BD3E91423381D1949D4
:1011F00004F042F93B1D1846FFF7BAFFC020FFF785
:1012000003FF1548FFF7B4FF104BD3E91623381D31
:10121000104904F031F93B1D1846FFF7A9FF89205A
:10122000FFF7F2FE0D48FFF7A3FF084BD3E91223A7
:10123000381D084904F020F93B1D1846FFF798FFB8
:10124000FA2000F025FFC1E78C02002028030020CF
:101250001C97000820970008289700082C97000882
:1012600080B594B000AF07F120033022002118466A
:1012700003F07AFA07F10C0300221A605A609A60B0
:10128000DA601A610023BB60274B1B6C264A43F0CF
:1012900080531364244B1B6C03F08053BB60BB680A
:1012A00000237B60214B1B68204A43F440431360BA
:1012B0001E4B1B6803F440437B607B6801233B6249
:1012C0004FF480337B620223BB634FF48003FB63E4
:1012D00008233B64AA237B640223BB640423FB64CE
:1012E00007F12003184602F0BBFA0346002B01D099
:1012F00000F0D6F80F23FB6002233B6100237B61E3
:101300004FF48053BB610023FB6107F10C03022102
:10131000184602F01DFD0346002B01D000F0C0F876
:1013200000BF5037BD4680BD00380240007000400D
:1013300080B500AF124B134A1A60114B124A5A6023
:101340000F4B00229A600E4B0022DA600C4B4FF4D8
:1013500080421A610A4B00225A61094B00229A61AD
:10136000074B0022DA61064B00221A62044801F0A2
:1013700037F90346002B01D000F092F800BF80BD82
:101380008C02002000540040A086010080B500AF10
:10139000114B124A1A60104B4FF4E1325A600E4B57
:1013A00000229A600C4B0022DA600B4B00221A617B
:1013B000094B0C225A61084B00229A61064B00220D
:1013C000DA61054802F0E4FE0346002B01D000F08C
:1013D00067F800BF80BD00BFE0020020004400406D
:1013E00080B58AB000AF07F1140300221A605A607A
:1013F0009A60DA601A6100233B61274B1B6B264A17
:1014000043F080031363244B1B6B03F080033B61A9
:101410003B690023FB60204B1B6B1F4A43F0010319
:1014200013631D4B1B6B03F00103FB60FB68002380
:10143000BB60194B1B6B184A43F008031363164B30
:101440001B6B03F00803BB60BB6800237B60124B7F
:101450001B6B114A43F0020313630F4B1B6B03F02A
:1014600002037B607B6800224FF470410B4801F05F
:101470009DF84FF470437B610123BB610023FB6146
:1014800000233B6207F114031946044800F00AFFE9
:1014900000BF2837BD4680BD00380240000C024026
:1014A00080B400AF72B600BFFEE780B588B004AF6D
:1014B0007860642302930123019307F10F030093E3
:1014C00001237522D021786801F0C6FBFB7B682BD5
:1014D0003DD10023BB73642302930123019307F1E1
:1014E0000E03009301236B22D021786801F0BAFA31
:1014F0000723BB73642302930123019307F10E03B7
:10150000009301231922D021786801F0ABFA00235F
:10151000BB73642302930123019307F10E0300932D
:1015200001231C22D021786801F09CFA0023BB73B0
:10153000642302930123019307F10E030093012317
:101540001B22D021786801F08DFA002300E00123EE
:1015500018461037BD4680BD2DE9B04F94B004AF9A
:1015600078603960642302930E23019307F1080326
:10157000009301233B22D021786801F06DFB3B7A78
:101580001B021AB27B7A1BB213431AB23B681A8051
:10159000BB7A1B021AB2FB7A1BB213431AB23B6826
:1015A0005A803B7B1B021AB27B7B1BB213431AB2DD
:1015B0003B689A80BB7B1B021AB2FB7B1BB21343B6
:1015C000FB863B7C1B021AB27B7C1BB213431AB214
:1015D0003B681A84BB7C1B021AB2FB7C1BB2134310
:1015E0001AB23B685A843B7D1B021AB27B7D1BB248
:1015F00013431AB23B689A843B68B3F9003018462B
:10160000FEF798FF4FF00002BF4BFFF727F90246A5
:101610000B463968C1E902233B68B3F9023018462A
:10162000FEF788FF4FF00002B74BFFF717F90246AD
:101630000B463968C1E904233B68B3F90430184606
:10164000FEF778FF4FF00002AF4BFFF707F90246B5
:101650000B463968C1E90623B7F9363007EE903AF0
:10166000B8EEE77ADFEDA96AC7EE267A9FEDA87A91
:1016700077EE877A3B68C3ED107A3B68B3F9203088
:101680001846FEF757FF9CA3D3E90023FFF7E6F8BF
:1016900002460B463968C1E90A233B68B3F9223098
:1016A0001846FEF747FF94A3D3E90023FFF7D6F8C7
:1016B00002460B463968C1E90C233B68B3F9243074
:1016C0001846FEF737FF8CA3D3E90023FFF7C6F8CF
:1016D00002460B463968C1E90E2300F0CDFC0246F4
:1016E0008C4B1B68D31A1846FEF714FF4FF000020C
:1016F000894BFFF7B3F802460B46C7E90A2300F00F
:10170000BBFC0346834A13603B68B3F900301A46BA
:101710003B68B3F9003003FB02F23B68B3F90430D5
:1017200019463B68B3F9043001FB03F31344184630
:10173000FEF700FF02460B4643EC102B07F037FE86
:1017400087ED080B4FF000024FF00003D7E90801C6
:10175000FFF7C2F90346002B24D13B68B3F90230EE
:101760001846FEF7E7FED7E90823FFF777F80246A9
:101770000B4643EC172BB0EE470AF0EE670A07F072
:101780006BFC51EC100B5EA3D3E90023FEF73CFF8A
:1017900002460B46C7E90E233968D7E90E23C1E993
:1017A00012230AE04FF000024FF00003C7E90E23B6
:1017B0003968D7E90E23C1E912233B68B3F9003039
:1017C0005B421846FEF7B6FE82468B463B68B3F98D
:1017D00004301846FEF7AEFE02460B4643EC112BD2
:1017E0004BEC10AB07F0E1FD51EC100B44A3D3E937
:1017F0000023FEF709FF02460B46C7E906234FF018
:101800000002464BD7E90601FFF770F90346002BAB
:101810000AD03B68D3E916014FF00002404BFFF7B6
:1018200083F90346002B14D14FF000023C4BD7E95B
:101830000601FFF779F90346002B15D03B68D3E981
:1018400016014FF00002354BFFF750F90346002B0D
:101850000AD03449D7E90623C1E906233968D7E914
:101860000623C1E9162314E03B6893ED0C7B97ED4A
:101870000A2BB0EE471AF0EE671A97ED060B2948CF
:1018800000F054F8B0EE407AF0EE607A3B6883EDF9
:10189000167B3B68D3E91623904623F000494FF0AE
:1018A00000021F4B40464946FFF73EF90346002B16
:1018B00008D03B68D3E90A23144683F000453B680F
:1018C000C3E90A453B6893ED0C7B97ED0A2BB0EE1C
:1018D000471AF0EE671A97ED0E0B134800F026F842
:1018E000B0EE407AF0EE607A3B6883ED147B00BF87
:1018F0004037BD46BDE8B08F00000000006060408A
:10190000F8C1631ADCA54C400000D0400000AA4397
:10191000B81E12428803002000408F40008056C04D
:10192000008056404800002000000020B0B596B06E
:1019300000AFF86187ED040B87ED021B87ED002BEC
:10194000FB69D3E90823D7E90201FEF7A5FC0246AB
:101950000B46C7E91423FB69D3E90645D7E91423ED
:10196000D7E90001FEF750FE02460B462046294605
:10197000FEF794FC02460B46F969C1E90623FB69B0
:10198000D3E90A45FB69D3E91001D7E90023FEF743
:101990003BFE02460B4610461946FB69D3E90C2371
:1019A000FEF77AFC02460B4610461946FB69D3E95E
:1019B0000E23FEF771FC02460B4610461946FB69E2
:1019C000D3E90023FEF76AFC02460B46104619468F
:1019D000D7E90023FEF718FE02460B4620462946AB
:1019E000FEF75CFC02460B46F969C1E90A23FB6974
:1019F000D3E90C45FB69D3E91001D7E90023FEF7D1
:101A000003FE02460B4620462946FEF745FC0246E9
:101A10000B46F969C1E90C23FB69D3E90E45FB6963
:101A2000D3E91001D7E90023FEF7EEFD02460B468D
:101A300020462946FEF730FC02460B46F969C1E90B
:101A40000E23FB69D3E91045FB69D3E90201D7E90D
:101A50000023FEF7D9FD02460B4620462946FEF735
:101A60001DFC02460B46F969C1E91023FB69D3E965
:101A70000A01FB69D3E90423FEF710FC02460B467A
:101A8000C7E91223FB69D3E90A01D7E91223FEF75C
:101A9000E5FE02460B46C7E90823FB69D3E90E01C0
:101AA000D7E91223FEF7DAFE02460B46C7E90A23FE
:101AB000FB69D3E90623D7E90401FEF7EDFB0246F3
:101AC0000B46C7E91023FB69D3E90645D7E90801AE
:101AD000D7E91023FEF798FD02460B46204629461B
:101AE000FEF7DCFB02460B46F969C1E90623FB69F8
:101AF000D3E90845D7E90A01D7E91023FEF784FDA9
:101B000002460B4620462946FEF7C8FB02460B4616
:101B1000F969C1E90823FB69D3E90A23C7E90E2360
:101B2000FB69D3E90C23C7E90C23FB69D3E90A4518
:101B3000D7E90801D7E90E23FEF766FD02460B46FA
:101B400020462946FEF7A8FB02460B46F969C1E983
:101B50000A23FB69D3E90C45D7E90801D7E90C232F
:101B6000FEF752FD02460B4620462946FEF794FB3F
:101B700002460B46F969C1E90C23FB69D3E90E451E
:101B8000D7E90A01D7E90E23FEF73EFD02460B46D0
:101B900020462946FEF780FB02460B46F969C1E95B
:101BA0000E23FB69D3E91045D7E90A01D7E90C23D5
:101BB000FEF72AFD02460B4620462946FEF76CFB3F
:101BC00002460B46F969C1E91023FB69D3E90623F4
:101BD00043EC172BB0EE470AF0EE670A5837BD46C4
:101BE000B0BD000080B483B000AF00237B60104B19
:101BF0005B6C0F4A43F4804353640D4B5B6C03F4FE
:101C000080437B607B6800233B60094B1B6C084A68
:101C100043F080531364064B1B6C03F080533B600E
:101C20003B6800BF0C37BD465DF8047B704700BFC2
:101C30000038024080B58AB000AF786007F1140325
:101C400000221A605A609A60DA601A617B681B6829
:101C5000194A93422BD100233B61184B1B6B174A47
:101C600043F002031363154B1B6B03F002033B614C
:101C70003B69C0237B611223BB610023FB6103230B
:101C80003B6204237B6207F1140319460C4800F001
:101C900009FB0023FB60094B1B6C084A43F400134B
:101CA0001364064B1B6C03F40013FB60FB6800BF5E
:101CB0002837BD4680BD00BF0054004000380240B8
:101CC0000004024080B58AB000AF786007F11403C9
:101CD00000221A605A609A60DA601A617B681B6899
:101CE000194A93422BD100233B61184B1B6C174AB6
:101CF00043F400331364154B1B6C03F400333B6156
:101D00003B690023FB60114B1B6B104A43F001033E
:101D100013630E4B1B6B03F00103FB60FB680C238A
:101D20007B610223BB610023FB6103233B6207232A
:101D30007B6207F114031946054800F0B3FA00BFAF
:101D40002837BD4680BD00BF004400400038024037
:101D50000000024080B400AFFEE780B400AFFEE7B1
:101D600080B400AFFEE780B400AFFEE780B400AF00
:101D7000FEE780B400AF00BFBD465DF8047B70474E
:101D800080B400AF00BFBD465DF8047B704780B4EF
:101D900000AF00BFBD465DF8047B704780B500AF63
:101DA00000F056F900BF80BD80B400AF0123184693
:101DB000BD465DF8047B704780B582B000AF7860A7
:101DC000396002F0A7FC034616221A604FF0FF3379
:101DD00018460837BD4680BD80B582B000AF786038
:101DE0004FF0FF317868FFF7E7FFFEE780B586B078
:101DF00000AFF860B9607A6000237B610AE0AFF35E
:101E000000800146BB685A1CBA60CAB21A707B696E
:101E100001337B617A697B689A42F0DB7B68184604
:101E20001837BD4680BD80B586B000AFF860B96098
:101E30007A6000237B6109E0BB685A1CBA601B789A
:101E40001846AFF300807B6901337B617A697B6858
:101E50009A42F1DB7B6818461837BD4680BD80B4D6
:101E600083B000AF78604FF0FF3318460C37BD46A3
:101E70005DF8047B704780B483B000AF7860396050
:101E80003B684FF400525A60002318460C37BD4699
:101E90005DF8047B704780B483B000AF78600123A5
:101EA00018460C37BD465DF8047B704780B485B09A
:101EB00000AFF860B9607A60002318461437BD4659
:101EC0005DF8047B7047000080B586B000AF786095
:101ED000144A154BD31A7B617B693B61134B1B681A
:101EE000002B02D1114B124A1A60104B1A687B6802
:101EF00013443A699A4207D202F00CFC03460C22C2
:101F00001A604FF0FF3309E0084B1B68FB60074B7A
:101F10001A687B681344054A1360FB681846183733
:101F2000BD4680BD00000220000400008C0300209C
:101F3000A803002080B400AF064BD3F88830054AD0
:101F400043F47003C2F8883000BFBD465DF8047BDF
:101F5000704700BF00ED00E0DFF834D00D480E49B7
:101F60000E4A002302E0D458C4500433C4188C42F3
:101F7000F9D30B4A0B4C002301E013600432A24258
:101F8000FBD3FFF7D7FF02F0CBFBFFF707F9704752
:101F9000000002200000002070020020709C000859
:101FA00070020020A4030020FEE7000080B500AF0F
:101FB0000E4B1B680D4A43F4007313600B4B1B68F8
:101FC0000A4A43F480631360084B1B68074A43F4D2
:101FD00080731360032000F031F90F2000F008F83F
:101FE000FFF700FE0023184680BD00BF003C024002
:101FF00080B582B000AF7860124B1A68124B1B7824
:1020000019464FF47A73B3FBF1F3B2FBF3F31846BE
:1020100000F03BF90346002B01D001230EE07B6862
:102020000F2B0AD8002279684FF0FF3000F011F929
:10203000064A7B681360002300E001231846083736
:10204000BD4680BD90000020980000209400002034
:1020500080B400AF064B1B781A46064B1B6813442E
:10206000044A136000BFBD465DF8047B704700BFA3
:10207000980000209003002080B400AF034B1B6841
:102080001846BD465DF8047B704700BF90030020F2
:1020900080B584B000AF7860FFF7EEFFB8607B6872
:1020A000FB60FB68B3F1FF3F05D00A4B1B781A4673
:1020B000FB681344FB6000BFFFF7DEFF0246BB680E
:1020C000D31AFA689A42F7D800BF00BF1037BD464E
:1020D00080BD00BF9800002080B485B000AF78605C
:1020E0007B6803F00703FB600C4BDB68BB60BA68DE
:1020F0004FF6FF031340BB60FB681A02BB68134333
:1021000043F0BF6343F40033BB60044ABB68D36051
:1021100000BF1437BD465DF8047B704700ED00E05A
:1021200080B400AF044BDB681B0A03F007031846BA
:10213000BD465DF8047B704700ED00E080B483B0DD
:1021400000AF03463960FB7197F90730002B0ADBBB
:102150003B68DAB20C4997F907301201D2B20B444E
:1021600083F800230AE03B68DAB20849FB7903F000
:102170000F03043B1201D2B20B441A7600BF0C3796
:10218000BD465DF8047B704700E100E000ED00E033
:1021900080B489B000AFF860B9607A60FB6803F082
:1021A0000703FB61FB69C3F10703042B28BF04236A
:1021B000BB61FB690433062B02D9FB69033B00E0DA
:1021C00000237B614FF0FF32BB6902FA03F3DA436D
:1021D000BB681A407B699A404FF0FF317B6901FA76
:1021E00003F3D9437B680B40134318462437BD469D
:1021F0005DF8047B7047000080B582B000AF786066
:102200007B68013BB3F1807F01D301230FE00A4AD1
:102210007B68013B53600F214FF0FF30FFF78EFFCB
:10222000054B00229A60044B07221A6000231846CF
:102230000837BD4680BD00BF10E000E080B582B029
:1022400000AF78607868FFF747FF00BF0837BD46EA
:1022500080BD80B586B000AF0346B9607A60FB737D
:1022600000237B61FFF75CFF78617A68B968786961
:10227000FFF78EFF024697F90F3011461846FFF719
:102280005DFF00BF1837BD4680BD80B582B000AF8E
:1022900078607868FFF7B0FF034618460837BD46F8
:1022A00080BD000080B489B000AF78603960002341
:1022B0007B6100233B610023BB610023FB6159E18B
:1022C0000122FB6902FA03F37B613B681B687A69B0
:1022D00013403B613A697B699A4240F048813B6810
:1022E0005B6803F00303012B05D03B685B6803F0D8
:1022F0000303022B30D17B689B68BB61FB695B00E9
:10230000032202FA03F3DB43BA691340BB613B6863
:10231000DA68FB695B0002FA03F3BA691343BB6135
:102320007B68BA699A607B685B68BB610122FB6964
:1023300002FA03F3DB43BA691340BB613B685B6895
:102340001B0903F00102FB6902FA03F3BA691343A4
:10235000BB617B68BA695A603B685B6803F0030342
:10236000032B17D07B68DB68BB61FB695B00032232
:1023700002FA03F3DB43BA691340BB613B689A6816
:10238000FB695B0002FA03F3BA691343BB617B6824
:10239000BA69DA603B685B6803F00303022B23D160
:1023A000FB69DA087B68083253F82230BB61FB69AD
:1023B00003F007039B000F2202FA03F3DB43BA6921
:1023C0001340BB613B681A69FB6903F007039B007C
:1023D00002FA03F3BA691343BB61FB69DA087B684D
:1023E0000832B96943F822107B681B68BB61FB693E
:1023F0005B00032202FA03F3DB43BA691340BB61BB
:102400003B685B6803F00302FB695B0002FA03F3BD
:10241000BA691343BB617B68BA691A603B685B6841
:1024200003F44033002B00F0A2800023FB60574BE5
:102430005B6C564A43F480435364544B5B6C03F427
:102440008043FB60FB68524AFB699B08023352F8E9
:102450002330BB61FB6903F003039B000F2202FAE8
:1024600003F3DB43BA691340BB617B68494A93427B
:1024700019D07B68484A934213D07B68474A9342FD
:102480000DD07B68464A934207D07B68454A934209
:1024900001D1042308E0072306E0032304E002231C
:1024A00002E0012300E00023FA6902F00302920037
:1024B0009340BA691343BB613549FB699B080233FA
:1024C000BA6941F82320384B9B68BB613B69DB4309
:1024D000BA691340BB613B685B6803F48013002B4F
:1024E00003D0BA693B691343BB612F4ABB69936050
:1024F0002D4BDB68BB613B69DB43BA691340BB61B1
:102500003B685B6803F40013002B03D0BA693B6996
:102510001343BB61244ABB69D360234B5B68BB6137
:102520003B69DB43BA691340BB613B685B6803F4FA
:102530000033002B03D0BA693B691343BB611A4ACD
:10254000BB695360184B1B68BB613B69DB43BA69CD
:102550001340BB613B685B6803F48033002B03D0FE
:10256000BA693B691343BB610F4ABB691360FB69DE
:102570000133FB61FB690F2B7FF6A2AE00BF00BFEA
:102580002437BD465DF8047B704700BF0038024029
:1025900000380140000002400004024000080240F0
:1025A000000C024000100240003C014080B483B0A7
:1025B00000AF78600B467B8013467B707B78002BE6
:1025C00003D07A887B689A6103E07B881A047B6871
:1025D0009A6100BF0C37BD465DF8047B7047000070
:1025E00080B584B000AF78607B68002B01D10123F7
:1025F0002BE17B6893F83D30DBB2002B06D17B6882
:10260000002283F83C207868FFF714FB7B682422C3
:1026100083F83D207B681B681A687B681B6822F082
:1026200001021A607B681B681A687B681B6842F4A9
:1026300000421A607B681B681A687B681B6822F47A
:1026400000421A6001F07CFDF8607B685B68814A9B
:10265000934207D8FB68804A934294BF012300232A
:10266000DBB206E0FB687D4A934294BF012300235E
:10267000DBB2002B01D00123E7E0FB68784AA2FB24
:1026800003239B0CBB607B681B685B6823F03F01E6
:102690007B681B68BA680A435A607B681B681B6AC0
:1026A00023F03F017B685B686A4A934202D8BB68AB
:1026B000013309E0BB684FF4967202FB03F3694AE9
:1026C000A2FB03239B0901337A6812680B43136250
:1026D0007B681B68DB6923F44F4222F0FF027B68B2
:1026E0005B685C498B4219D8FB68591E7B685B6844
:1026F0005B00B1FBF3F3591C40F6FC730B40002B5D
:102700000AD0FB68591E7B685B685B00B1FBF3F382
:102710000133C3F30B0351E004234FE07B689B6854
:10272000002B11D1FB68581E7B6859680B465B0073
:102730000B44B0FBF3F30133C3F30B03002B0CBFCB
:1027400001230023DBB212E0FB68581E7B68596846
:102750000B469B000B4499000B44B0FBF3F3013391
:10276000C3F30B03002B0CBF01230023DBB2002BB0
:1027700001D0012322E07B689B68002B0ED1FB680F
:10278000581E7B6859680B465B000B44B0FBF3F3A3
:102790000133C3F30B0343F400430FE0FB68581EFF
:1027A0007B6859680B469B000B4499000B44B0FBB7
:1027B000F3F30133C3F30B0343F44043796809682F
:1027C0001343CB617B681B681B6823F0C0017B68E7
:1027D000DA697B681B6A1A437B681B680A431A60C4
:1027E0007B681B689B6823F4034323F0FF037A682C
:1027F00011697A68D26811437A6812680B43936052
:102800007B681B68DB6823F0FF017B685A697B6883
:102810009B691A437B681B680A43DA607B681B6804
:102820001A687B681B6842F001021A607B6800220C
:102830001A647B68202283F83D207B6800221A639B
:102840007B68002283F83E20002318461037BD46DF
:1028500080BD00BFA08601007F841E00FF083D00F0
:1028600083DE1B43D34D621080B588B002AFF860A1
:102870007A601A460B467B8113463B81FFF7FCFBCF
:102880007861FB6893F83D30DBB2202B40F0E080AC
:102890007B690093192301227049F86800F002FE59
:1028A0000346002B01D00223D3E0FB6893F83C30B1
:1028B000012B01D10223CCE0FB68012283F83C20EC
:1028C000FB681B681B6803F00103012B07D0FB6842
:1028D0001B681A68FB681B6842F001021A60FB68FB
:1028E0001B681A68FB681B6822F400621A60FB68A8
:1028F000212283F83D20FB68102283F83E20FB68EC
:1029000000221A64FB687A685A62FB683A895A8521
:10291000FB685B8D9AB2FB681A85FB68504ADA62E5
:1029200079897B693A6AF86800F0BCFB0346002BA2
:1029300001D001238DE000233B61FB681B685B69CC
:102940003B61FB681B689B693B613B6966E07A6998
:10295000396AF86800F07CFE0346002B0DD0FB6856
:102960001B6C042B07D1FB681B681A68FB681B688B
:1029700042F400721A6001236BE0FB685B6A1A780C
:10298000FB681B681A61FB685B6A5A1CFB685A6229
:10299000FB685B8D9BB2013B9AB2FB685A85FB6872
:1029A0001B8D013B9AB2FB681A85FB681B685B694B
:1029B00003F00403042B1BD1FB681B8D002B17D0E5
:1029C000FB685B6A1A78FB681B681A61FB685B6AC4
:1029D0005A1CFB685A62FB685B8D9BB2013B9AB242
:1029E000FB685A85FB681B8D013B9AB2FB681A8510
:1029F0007A69396AF86800F06CFE0346002B0DD046
:102A0000FB681B6C042B07D1FB681B681A68FB680A
:102A10001B6842F400721A6001231AE0FB681B8DE8
:102A2000002B94D1FB681B681A68FB681B6842F492
:102A300000721A60FB68202283F83D20FB680022A8
:102A400083F83E20FB68002283F83C20002300E04E
:102A5000022318461837BD4680BD00BF0200100093
:102A60000000FFFF80B588B002AFF860084611464D
:102A70001A4603467B810B463B811346FB80FFF7DA
:102A8000FBFA7861FB6893F83D30DBB2202B40F015
:102A9000D9807B690093192301226D49F86800F001
:102AA00001FD0346002B01D00223CCE0FB6893F824
:102AB0003C30012B01D10223C5E0FB68012283F8E1
:102AC0003C20FB681B681B6803F00103012B07D047
:102AD000FB681B681A68FB681B6842F001021A60F9
:102AE000FB681B681A68FB681B6822F400621A60A6
:102AF000FB68212283F83D20FB68402283F83E20BA
:102B0000FB6800221A64FB683A6A5A62FB68BA8C56
:102B10005A85FB685B8D9AB2FB681A85FB684D4A43
:102B2000DA62F8883A8979897B690193BB6A0093F4
:102B30000346F86800F038FB0346002B52D001230F
:102B400081E07A69B96AF86800F082FD0346002BDB
:102B50000DD0FB681B6C042B07D1FB681B681A683F
:102B6000FB681B6842F400721A6001236BE0FB688B
:102B70005B6A1A78FB681B681A61FB685B6A5A1CFF
:102B8000FB685A62FB681B8D013B9AB2FB681A8591
:102B9000FB685B8D9BB2013B9AB2FB685A85FB6870
:102BA0001B685B6903F00403042B1BD1FB681B8DBE
:102BB000002B17D0FB685B6A1A78FB681B681A61E8
:102BC000FB685B6A5A1CFB685A62FB681B8D013B01
:102BD0009AB2FB681A85FB685B8D9BB2013B9AB287
:102BE000FB685A85FB681B8D002BAAD17A69B96AEC
:102BF000F86800F06EFD0346002B0DD0FB681B6CDF
:102C0000042B07D1FB681B681A68FB681B6842F439
:102C100000721A60012316E0FB681B681A68FB68E3
:102C20001B6842F400721A60FB68202283F83D2082
:102C3000FB68002283F83E20FB68002283F83C20DA
:102C4000002300E0022318461837BD4680BD00BFB0
:102C5000020010000000FFFF80B58CB002AFF860EA
:102C6000084611461A4603467B810B463B811346B4
:102C7000FB80FFF701FA7862FB6893F83D30DBB226
:102C8000202B40F008827B6A0093192301227B49A4
:102C9000F86800F007FC0346002B01D00223FBE19B
:102CA000FB6893F83C30012B01D10223F4E1FB686F
:102CB000012283F83C20FB681B681B6803F00103BA
:102CC000012B07D0FB681B681A68FB681B6842F081
:102CD00001021A60FB681B681A68FB681B6822F413
:102CE00000621A60FB68222283F83D20FB684022C4
:102CF00083F83E20FB6800221A64FB683A6B5A6234
:102D0000FB68BA8E5A85FB685B8D9AB2FB681A85A0
:102D1000FB685B4ADA62F8883A8979897B6A0193B1
:102D2000BB6B00930346F86800F0D4FA0346002B0F
:102D300001D00123B0E1FB681B8D002B13D10023D0
:102D40003B62FB681B685B693B62FB681B689B69B5
:102D50003B623B6AFB681B681A68FB681B6842F4AD
:102D600000721A6084E1FB681B8D012B1BD1FB688C
:102D70001B681A68FB681B6822F480621A600023D3
:102D8000FB61FB681B685B69FB61FB681B689B69F7
:102D9000FB61FB69FB681B681A68FB681B6842F4EF
:102DA00000721A6064E1FB681B8D022B1BD1FB686B
:102DB0001B681A68FB681B6822F480621A60FB6853
:102DC0001B681A68FB681B6842F400621A600023E3
:102DD000BB61FB681B685B69BB61FB681B689B6927
:102DE000BB61BB6944E100237B61FB681B685B69D5
:102DF0007B61FB681B689B697B617B6938E1FB68D1
:102E00001B8D032B00F2F180FB681B8D012B23D15E
:102E10007A6AB96BF86800F09DFC0346002B01D07C
:102E2000012339E1FB681B681A69FB685B6AD2B24F
:102E30001A70FB685B6A5A1CFB685A62FB681B8D40
:102E4000013B9AB2FB681A85FB685B8D9BB2013B24
:102E50009AB2FB685A850BE1FB681B8D022B4ED1A1
:102E60007B6A0093BB6B00220649F86800F01AFBEE
:102E70000346002B08D001230EE100BF0200100022
:102E80000000FFFF04000100FB681B681A68FB6874
:102E90001B6842F400721A60FB681B681A69FB68C1
:102EA0005B6AD2B21A70FB685B6A5A1CFB685A6292
:102EB000FB681B8D013B9AB2FB681A85FB685B8D32
:102EC0009BB2013B9AB2FB685A85FB681B681A6982
:102ED000FB685B6AD2B21A70FB685B6A5A1CFB68BB
:102EE0005A62FB681B8D013B9AB2FB681A85FB682E
:102EF0005B8D9BB2013B9AB2FB685A85B8E07B6A56
:102F00000093BB6B00226649F86800F0CBFA0346D9
:102F1000002B01D00123BFE0FB681B681A68FB6827
:102F20001B6822F480621A60FB681B681A69FB68E0
:102F30005B6AD2B21A70FB685B6A5A1CFB685A6201
:102F4000FB681B8D013B9AB2FB681A85FB685B8DA1
:102F50009BB2013B9AB2FB685A857B6A0093BB6BBC
:102F600000224F49F86800F09DFA0346002B01D07B
:102F7000012391E0FB681B681A68FB681B6842F438
:102F800000721A60FB681B681A69FB685B6AD2B240
:102F90001A70FB685B6A5A1CFB685A62FB681B8DDF
:102FA000013B9AB2FB681A85FB685B8D9BB2013BC3
:102FB0009AB2FB685A85FB681B681A69FB685B6AF2
:102FC000D2B21A70FB685B6A5A1CFB685A62FB68D3
:102FD0001B8D013B9AB2FB681A85FB685B8D9BB227
:102FE000013B9AB2FB685A8542E07A6AB96BF8688D
:102FF00000F0B0FB0346002B01D001234CE0FB683E
:103000001B681A69FB685B6AD2B21A70FB685B6A5C
:103010005A1CFB685A62FB681B8D013B9AB2FB6825
:103020001A85FB685B8D9BB2013B9AB2FB685A859F
:10303000FB681B685B6903F00403042B18D1FB6871
:103040001B681A69FB685B6AD2B21A70FB685B6A1C
:103050005A1CFB685A62FB681B8D013B9AB2FB68E5
:103060001A85FB685B8D9BB2013B9AB2FB685A855F
:10307000FB681B8D002B7FF4C2AEFB68202283F817
:103080003D20FB68002283F83E20FB68002283F885
:103090003C20002300E0022318462837BD4680BDAF
:1030A0000400010080B588B002AFF8607A603B6030
:1030B0000B467B81FB68DB6A7B617B69082B06D052
:1030C0007B69012B03D07B6913F5803F08D1FB6836
:1030D0001B681A68FB681B6842F480721A600BE078
:1030E000FB681B6B122B07D1FB681B681A68FB6817
:1030F0001B6842F480721A603B6800937B68002270
:103100004FF00111F86800F0CDF90346002B0DD007
:10311000FB681B681B6803F48073B3F5807F03D1E1
:10312000FB684FF400721A64032335E0FB681B69E7
:10313000B3F5804F08D17B89DBB21A46FB681B6868
:1031400002F0FE021A611BE07B89DB11DBB203F0A7
:103150000603DBB263F00F03DAB2FB681B681A6187
:103160003B687A680E49F86800F0F3F90346002BD3
:1031700001D0012310E07B89DAB2FB681B681A6179
:103180003B687A680749F86800F0E3F90346002BCA
:1031900001D0012300E0002318461837BD4680BD4A
:1031A000080001000200010080B588B002AFF8609D
:1031B000084611461A4603467B810B463B8113465F
:1031C000FB80FB681B681A68FB681B6842F480720E
:1031D0001A607B6A00933B6A00224FF00111F86885
:1031E00000F060F90346002B0DD0FB681B681B68DC
:1031F00003F48073B3F5807F03D1FB684FF4007252
:103200001A6403235FE07B89DBB21A46FB681B6804
:1032100002F0FE021A617B6A3A6A2D49F86800F0F2
:1032200098F90346002B01D001234CE000237B6179
:10323000FB681B685B697B61FB681B689B697B6142
:103240007B697A6A396AF86800F002FA0346002B53
:103250000DD0FB681B6C042B07D1FB681B681A6838
:10326000FB681B6842F400721A6001232BE0FB88A4
:10327000012B05D13B89DAB2FB681B681A6121E09A
:103280003B891B0A9BB2DAB2FB681B681A617A6A37
:10329000396AF86800F0DCF90346002B0DD0FB68B2
:1032A0001B6C042B07D1FB681B681A68FB681B6842
:1032B00042F400721A60012305E03B89DAB2FB6830
:1032C0001B681A61002318461837BD4680BD00BF31
:1032D0000200010080B588B002AFF86008461146D0
:1032E0001A4603467B810B463B811346FB80FB68F5
:1032F0001B681A68FB681B6842F480621A60FB68EE
:103300001B681A68FB681B6842F480721A607B6A4B
:1033100000933B6A00224FF00111F86800F0C2F8F8
:103320000346002B0DD0FB681B681B6803F48073F9
:10333000B3F5807F03D1FB684FF400721A64032356
:10334000AAE07B89DBB21A46FB681B6802F0FE022A
:103350001A617B6A3A6A5249F86800F0FAF8034643
:10336000002B01D0012397E000237B61FB681B68E1
:103370005B697B61FB681B689B697B617B697A6A1F
:10338000396AF86800F064F90346002B0DD0FB6839
:103390001B6C042B07D1FB681B681A68FB681B6851
:1033A00042F400721A60012376E0FB88012B05D1FC
:1033B0003B89DAB2FB681B681A6121E03B891B0A72
:1033C0009BB2DAB2FB681B681A617A6A396AF868DC
:1033D00000F03EF90346002B0DD0FB681B6C042B5C
:1033E00007D1FB681B681A68FB681B6842F400720F
:1033F0001A60012350E03B89DAB2FB681B681A614E
:103400007A6A396AF86800F023F90346002B0DD078
:10341000FB681B6C042B07D1FB681B681A68FB68F0
:103420001B6842F400721A60012335E0FB681B68D8
:103430001A68FB681B6842F480721A607B6A00930A
:103440003B6A00224FF00111F86800F02BF80346A8
:10345000002B0DD0FB681B681B6803F48073B3F569
:10346000807F03D1FB684FF400721A64032313E0DA
:103470007B89DBB243F00103DAB2FB681B681A6197
:103480007B6A3A6A0649F86800F063F80346002B45
:1034900001D0012300E0002318461837BD4680BD47
:1034A0000200010080B584B000AFF860B9603B60F5
:1034B0001346FB7125E03B68B3F1FF3F21D0FEF7D7
:1034C000DBFD0246BB69D31A3A689A4202D33B68D5
:1034D000002B16D1FB6800221A63FB68202283F8B8
:1034E0003D20FB68002283F83E20FB681B6C43F004
:1034F0002002FB681A64FB68002283F83C20012349
:1035000023E0BB681B0CDBB2012B0DD1FB681B68F1
:103510005B69DA43BB6813409BB2002B0CBF0123ED
:103520000023DBB21A460CE0FB681B689B69DA4398
:10353000BB6813409BB2002B0CBF01230023DBB2FE
:103540001A46FB799A42B6D0002318461037BD467A
:1035500080BD80B584B000AFF860B9607A603B6030
:1035600051E0FB681B685B6903F48063B3F5806F0F
:1035700023D1FB681B681A68FB681B6842F4007261
:103580001A60FB681B686FF480625A61FB68002256
:103590001A63FB68202283F83D20FB68002283F831
:1035A0003E20FB681B6C43F00402FB681A64FB6856
:1035B000002283F83C20012346E07B68B3F1FF3F03
:1035C00021D0FEF759FD02463B68D31A7A689A4229
:1035D00002D37B68002B16D1FB6800221A63FB68BC
:1035E000202283F83D20FB68002283F83E20FB6800
:1035F0001B6C43F02002FB681A64FB68002283F80E
:103600003C20012320E0BB681B0CDBB2012B0CD15A
:10361000FB681B685B69DA43BB6813409BB2002BF5
:1036200014BF01230023DBB20BE0FB681B689B691E
:10363000DA43BB6813409BB2002B14BF0123002365
:10364000DBB2002B8DD1002318461037BD4680BD5C
:1036500080B584B000AFF860B9607A602DE0F8689A
:1036600000F0CEF80346002B01D001232DE0BB680B
:10367000B3F1FF3F21D0FEF7FFFC02467B68D31A6F
:10368000BA689A4202D3BB68002B16D1FB680022AD
:103690001A63FB68202283F83D20FB68002283F830
:1036A0003E20FB681B6C43F02002FB681A64FB6839
:1036B000002283F83C20012307E0FB681B685B695C
:1036C00003F08003802BCAD1002318461037BD4673
:1036D00080BD80B584B000AFF860B9607A602DE03D
:1036E000F86800F08DF80346002B01D001232DE08F
:1036F000BB68B3F1FF3F21D0FEF7BEFC02467B68FA
:10370000D31ABA689A4202D3BB68002B16D1FB6861
:1037100000221A63FB68202283F83D20FB68002208
:1037200083F83E20FB681B6C43F02002FB681A64A0
:10373000FB68002283F83C20012307E0FB681B683C
:103740005B6903F00403042BCAD100231846103729
:10375000BD4680BD80B584B000AFF860B9607A60C6
:1037600042E0FB681B685B6903F01003102B19D162
:10377000FB681B686FF010025A61FB6800221A6335
:10378000FB68202283F83D20FB68002283F83E205E
:10379000FB681A6CFB681A64FB68002283F83C2003
:1037A000012329E0FEF768FC02467B68D31ABA6859
:1037B0009A4202D3BB68002B16D1FB6800221A6321
:1037C000FB68202283F83D20FB68002283F83E201E
:1037D000FB681B6C43F02002FB681A64FB68002244
:1037E00083F83C20012307E0FB681B685B6903F05A
:1037F0004003402BB5D1002318461037BD4680BD8D
:1038000080B483B000AF78607B681B685B6903F4A9
:103810008063B3F5806F1BD17B681B686FF4806297
:103820005A617B6800221A637B68202283F83D205E
:103830007B68002283F83E207B681B6C43F0040207
:103840007B681A647B68002283F83C20012300E037
:10385000002318460C37BD465DF8047B7047000016
:1038600080B586B000AF78607B68002B01D1012362
:1038700067E27B681B6803F00103002B75D0884B5F
:103880009B6803F00C03042B0CD0854B9B6803F062
:103890000C03082B12D1824B5B6803F48003B3F551
:1038A000800F0BD17E4B1B6803F40033002B5BD0E1
:1038B0007B685B68002B57D1012342E27B685B6821
:1038C000B3F5803F06D1764B1B68754A43F48033CD
:1038D00013601DE07B685B68B3F5A02F0CD1704BC3
:1038E0001B686F4A43F4802313606D4B1B686C4A5E
:1038F00043F4803313600BE0694B1B68684A23F480
:1039000080331360664B1B68654A23F48023136081
:103910007B685B68002B13D0FEF7AEFB386108E0D4
:10392000FEF7AAFB02463B69D31A642B01D9032395
:1039300007E25B4B1B6803F40033002BF0D014E06C
:10394000FEF79AFB386108E0FEF796FB02463B69FA
:10395000D31A642B01D90323F3E1514B1B6803F401
:103960000033002BF0D100E000BF7B681B6803F040
:103970000203002B63D04A4B9B6803F00C03002B1F
:103980000BD0474B9B6803F00C03082B1CD1444B16
:103990005B6803F48003002B16D1414B1B6803F0D6
:1039A0000203002B05D07B68DB68012B01D00123CB
:1039B000C7E13B4B1B6823F0F8027B681B69DB0007
:1039C000374913430B603AE07B68DB68002B20D05B
:1039D000344B01221A60FEF74FFB386108E0FEF716
:1039E0004BFB02463B69D31A022B01D90323A8E102
:1039F0002B4B1B6803F00203002BF0D0284B1B68F5
:103A000023F0F8027B681B69DB00254913430B6038
:103A100015E0244B00221A60FEF72EFB386108E007
:103A2000FEF72AFB02463B69D31A022B01D9032376
:103A300087E11B4B1B6803F00203002BF0D17B686E
:103A40001B6803F00803002B36D07B685B69002BF2
:103A500016D0154B01221A60FEF70EFB386108E004
:103A6000FEF70AFB02463B69D31A022B01D9032356
:103A700067E10B4B5B6F03F00203002BF0D01BE000
:103A8000094B00221A60FEF7F7FA38610EE0FEF7E4
:103A9000F3FA02463B69D31A022B07D9032350E1FC
:103AA0000038024000004742800E4742884B5B6F5F
:103AB00003F00203002BEAD17B681B6803F00403C8
:103AC000002B00F097800023FB75814B1B6C03F0EB
:103AD0008053002B0FD10023BB607D4B1B6C7C4AB5
:103AE00043F0805313647A4B1B6C03F08053BB602C
:103AF000BB680123FB75774B1B6803F48073002BB5
:103B000018D1744B1B68734A43F480731360FEF73B
:103B1000B3FA386108E0FEF7AFFA02463B69D31A00
:103B2000022B01D903230CE16A4B1B6803F4807359
:103B3000002BF0D07B689B68012B06D1644B1B6F78
:103B4000634A43F0010313671CE07B689B68052B05
:103B50000CD15F4B1B6F5E4A43F0040313675C4B51
:103B60001B6F5B4A43F0010313670BE0584B1B6F5D
:103B7000574A23F001031367554B1B6F544A23F038
:103B8000040313677B689B68002B15D0FEF774FA5B
:103B900038610AE0FEF770FA02463B69D31A41F237
:103BA0008832934201D90323CBE0494B1B6F03F0CA
:103BB0000203002BEED014E0FEF75EFA38610AE053
:103BC000FEF75AFA02463B69D31A41F28832934211
:103BD00001D90323B5E03E4B1B6F03F00203002B1A
:103BE000EED1FB7D012B05D1394B1B6C384A23F0FC
:103BF000805313647B689B69002B00F0A180344BD9
:103C00009B6803F00C03082B5CD07B689B69022B3C
:103C100041D1314B00221A60FEF72EFA386108E0DC
:103C2000FEF72AFA02463B69D31A022B01D9032375
:103C300087E0274B1B6803F00073002BF0D17B68F3
:103C4000DA697B681B6A1A437B685B6A9B011A43CB
:103C50007B689B6A5B08013B1B041A437B68DB6A39
:103C60001B061B4913434B601B4B01221A60FEF7D6
:103C700003FA386108E0FEF7FFF902463B69D31A00
:103C8000022B01D903235CE0114B1B6803F0007386
:103C9000002BF0D054E0104B00221A60FEF7ECF934
:103CA000386108E0FEF7E8F902463B69D31A022BB7
:103CB00001D9032345E0064B1B6803F00073002B7A
:103CC000F0D13DE07B689B69012B07D1012338E0EF
:103CD0000038024000700040600047421B4B5B68A8
:103CE000FB607B689B69012B28D0FB6803F4800292
:103CF0007B68DB699A4221D1FB6803F03F027B6855
:103D00001B6A9A421AD1FA6847F6C07313407A6860
:103D1000526A9201934211D1FB6803F440327B68EE
:103D20009B6A5B08013B1B049A4207D1FB6803F0C6
:103D300070627B68DB6A1B069A4201D0012300E0B7
:103D4000002318461837BD4680BD00BF003802402A
:103D500080B584B000AF786039607B68002B01D1FA
:103D60000123CCE0684B1B6803F007033A689A42D2
:103D70000CD9654B3A68D2B21A70634B1B6803F0DA
:103D800007033A689A4201D00123B8E07B681B68B8
:103D900003F00203002B20D07B681B6803F00403B0
:103DA000002B05D0594B9B68584A43F4E05393606D
:103DB0007B681B6803F00803002B05D0534B9B68FE
:103DC000524A43F460439360504B9B6823F0F002E7
:103DD0007B689B684D4913438B607B681B6803F0CD
:103DE0000103002B44D07B685B68012B07D1474B54
:103DF0001B6803F40033002B19D101237FE07B689B
:103E00005B68022B03D07B685B68032B07D13F4BB9
:103E10001B6803F00073002B09D101236FE03B4BBB
:103E20001B6803F00203002B01D1012367E0374B2D
:103E30009B6823F003027B685B68344913438B6003
:103E4000FEF71AF9F8600AE0FEF716F90246FB6879
:103E5000D31A41F28832934201D903234FE02B4B0E
:103E60009B6803F00C027B685B689B009A42EBD175
:103E7000254B1B6803F007033A689A420CD2224B89
:103E80003A68D2B21A70204B1B6803F007033A68F5
:103E90009A4201D0012332E07B681B6803F00403DF
:103EA000002B08D0194B9B6823F4E0527B68DB6839
:103EB000164913438B607B681B6803F00803002BD3
:103EC00009D0124B9B6823F460427B681B69DB00BE
:103ED0000E4913438B6000F021F802460B4B9B68A0
:103EE0001B0903F00F030A49CB5C22FA03F3094ACA
:103EF0001360094B1B681846FEF77AF80023184632
:103F00001037BD4680BD00BF003C02400038024073
:103F10003097000890000020940000202DE9B04F59
:103F200094B000AF00237B640023FB6400233B6458
:103F30000023BB64794B9B6803F00C03082B0DD066
:103F4000082B00F2E180002B02D0042B03D0DBE031
:103F5000734BBB64DBE0734BBB64D8E06F4B5B68B7
:103F600003F03F037B646D4B5B6803F48003002B1D
:103F700063D06A4B5B689B090022BB63FA63BB6B2F
:103F8000C3F308033B6300237B63D7E90C45224658
:103F90002B464FF000004FF00001590141EAD26179
:103FA000500102460B462146511A3961294663EBFE
:103FB00001037B614FF000024FF00003D7E904AB2F
:103FC00059468B01514643EA916351468A01514655
:103FD000B2EB0108594663EB01094FF000024FF0C4
:103FE00000034FEAC90343EA58734FEAC8029046F8
:103FF0009946234618EB0303BB602B4649EB0303AA
:10400000FB604FF000024FF00003D7E9024529465C
:104010004B02214643EAD15321464A021046194633
:104020007B6C0022BB62FA62D7E90A23FCF734FEFC
:1040300002460B461346FB6458E0384B5B689B090D
:10404000002218461146C0F308033B6200237B623E
:10405000D7E9088942464B464FF000004FF0000177
:10406000590141EAD261500102460B464146B2EB8A
:10407000010A494663EB010B4FF000024FF00003C9
:104080004FEA8B1343EA9A634FEA8A12B2EB0A04AF
:1040900063EB0B054FF000024FF00003EB0043EA27
:1040A0005473E20014461D464346E3183B604B46FA
:1040B00045EB03037B604FF000024FF00003D7E9AC
:1040C000004529468B02214643EA915321468A0244
:1040D000104619467B6C0022BB61FA61D7E90623C2
:1040E000FCF7DAFD02460B461346FB640B4B5B689C
:1040F0001B0C03F0030301335B003B64FA6C3B6C65
:10410000B2FBF3F3BB6402E0054BBB6400BFBB6CC6
:1041100018465037BD46BDE8B08F00BF003802409A
:104120000024F40000127A0080B400AF034B1B6837
:104130001846BD465DF8047B704700BF9000002024
:1041400080B500AFFFF7F0FF0246054B9B689B0A66
:1041500003F007030349CB5C22FA03F3184680BD42
:10416000003802404097000880B500AFFFF7DCFF41
:104170000246054B9B685B0B03F007030349CB5CCE
:1041800022FA03F3184680BD003802404097000829
:1041900080B582B000AF78607B68002B01D101232D
:1041A0003FE07B6893F83D30DBB2002B06D17B68A3
:1041B000002283F83C207868FDF784FD7B68242288
:1041C00083F83D207B681B68DA687B681B6822F4F3
:1041D0000052DA60786800F029F87B681B681A6979
:1041E0007B681B6822F490421A617B681B685A69DD
:1041F0007B681B6822F02A025A617B681B68DA68B8
:104200007B681B6842F40052DA607B6800221A6403
:104210007B68202283F83D207B68202283F83E20A3
:10422000002318460837BD4680BD00002DE9B04F79
:10423000C0B000AFC7F8F400D7F8F4301B681B69B2
:1042400023F44050D7F8F430D968D7F8F4301A681E
:1042500040EA01031361D7F8F4309A68D7F8F430D4
:104260001B691A43D7F8F4305B691A43D7F8F43066
:10427000DB691343C7F8F830D7F8F4301B68DB6804
:1042800023F4164121F00C01D7F8F4301A68D7F85E
:10429000F8300B43D360D7F8F4301B685B6923F424
:1042A0004070D7F8F4309969D7F8F4301A6840EACA
:1042B00001035361D7F8F4301A688F4B9A4205D046
:1042C000D7F8F4301A688D4B9A4204D1FFF74CFFAF
:1042D000C7F8FC0003E0FFF733FFC7F8FC00D7F88E
:1042E000F430DB69B3F5004F40F00C81D7F8FC30B7
:1042F0000022C7F8E830C7F8EC20D7E93A45224653
:104300002B469118B9655B41FB65D7E91623214619
:1043100012EB0108294643EB01094FF000024FF070
:1043200000034FEAC90343EA58734FEAC8029046B4
:104330009946234618EB0303C7F8E0302B4649EBB8
:104340000303C7F8E430D7F8F4305B680022C7F8FD
:10435000D830C7F8DC20D7E936120B46DB183B65AE
:10436000134642EB03037B65D7E91423D7E93801F1
:10437000FCF792FC02460B46614BA3FB02235B0950
:104380001C01D7F8FC300022C7F8D030C7F8D42081
:10439000D7E9348942464B469118B9645B41FB64C6
:1043A000D7E91223414612EB010A494643EB010BC0
:1043B0004FF000024FF000034FEACB0343EA5A7379
:1043C0004FEACA0292469B4643461AEB0303C7F8DC
:1043D000C8304B464BEB0303C7F8CC30D7F8F4306A
:1043E0005B680022C7F8C030C7F8C420D7E9301294
:1043F0000B46DB183B64134642EB03037B64D7E9AF
:104400001023D7E93201FCF747FC02460B46114660
:104410003B4BA3FB01235B09642202FB03F3CB1A92
:10442000DB0003F13202364BA3FB02235B095B0086
:1044300003F4F8731C44D7F8FC300022C7F8B830F6
:10444000C7F8BC20D7E92E8942464B469118B9637C
:104450005B41FB63D7E90E23414651183963494656
:104460004B417B634FF000024FF00003D7E90CABE8
:104470005946CB00514643EA51735146CA00104693
:104480001946034642469B18C7F8B0304B460A46C9
:1044900042EB0303C7F8B430D7F8F4305B6800226E
:1044A000C7F8A830C7F8AC20D7E92A120B46DB18AA
:1044B000BB62134642EB0303FB62D7E90A23D7E949
:1044C0002C01FCF7E9FB02460B460D4BA3FB021344
:1044D0005B09642101FB03F3D31ADB003233084A82
:1044E000A2FB03235B0903F00702D7F8F4301B6833
:1044F00022449A6005E100BF001001400014014011
:104500001F85EB51D7F8FC300022C7F8A030C7F860
:10451000A420D7E9288942464B46911839625B416D
:104520007B62D7E9082341465418494643EB01050D
:104530004FF000024FF00003EB0043EA5473E20037
:1045400014461D464346E318C7F898304B4645EBE2
:104550000303C7F89C30D7F8F4305B680022C7F833
:104560009030C7F894204FF000024FF00003D7E9D5
:10457000244529468B00214643EA917321468A004F
:10458000D7E92601FCF788FB02460B46604BA3FBEC
:1045900002235B091C01D7F8FC300022C7F88830E1
:1045A000C7F88C20D7E9228942464B469118B96159
:1045B0005B41FB61D7E90623414651183961494601
:1045C0004B417B614FF000024FF00003D7E904AB91
:1045D0005946CB00514643EA51735146CA00104632
:1045E0001946034642469B18C7F880304B460A4698
:1045F00042EB0303C7F88430D7F8F4305B6800223D
:10460000BB67FA674FF000024FF00003D7E91E893D
:1046100049468B00414643EA917341468A00D7E9F7
:104620002001FCF739FB02460B46394BA3FB021372
:104630005B09642101FB03F3D31A1B013233344AB3
:10464000A2FB03235B0903F0F0031C44D7F8FC3002
:1046500000223B677A67D7E91C8942464B4691188E
:10466000B9605B41FB60D7E90223414651183960CC
:1046700049464B417B604FF000024FF00003D7E901
:1046800000AB5946CB00514643EA51735146CA002C
:1046900010461946034642469B18BB664B460A46DF
:1046A00042EB0303FB66D7F8F4305B6800223B66FD
:1046B0007A664FF000024FF00003D7E918894946A7
:1046C0008B00414643EA917341468A00D7E91A01BB
:1046D000FCF7E2FA02460B460D4BA3FB02135B0903
:1046E000642101FB03F3D31A1B013233084AA2FBF6
:1046F00003235B0903F00F02D7F8F4301B68224450
:104700009A6000BF07F58077BD46BDE8B08F00BF57
:104710001F85EB51014B1868704700BF9C000020BB
:1047200070B50D4D0D4C641BA4100026A64209D196
:104730000B4D0C4C04F0E4FF641BA4100026A642B1
:1047400005D170BD55F8043B98470136EEE755F8A2
:10475000043B98470136F2E7689C0008689C000813
:10476000689C00086C9C000802440346934200D1F8
:10477000704703F8011BF9E72DE9FF4755EC104B93
:10478000002D0E4619462B46BBBF05F100431D46C2
:1047900000232D230B700D9BDDF830A0914623F0F4
:1047A0002008BCBF22461446B8F1460F05D0B8F128
:1047B000450F00D10136022100E0032103AB019334
:1047C00002AB009345EC104B5346324601F0ACFD72
:1047D000B8F1470F074602D119F0010F22D0B8F106
:1047E000460F07EB060910D13B78302B0AD1002287
:1047F000002320462946FCF76FF918B9C6F10106D7
:10480000CAF80060DAF800309944002200232046FC
:104810002946FCF761F908B1CDF80C903022039BD2
:104820004B4507D3039B0E9ADB1B3846136004B03D
:10483000BDE8F087591C03911A70F0E7F7B50346FD
:104840000029B8BF494203F8022BB4BF2D222B2206
:10485000092942702ADD0DF10704A4460A27A6465D
:104860000A4691FBF7F607FB16153035632A04F16B
:10487000FF340EF8015C3146F1DC3031AEF1020557
:1048800004F8011C441C294661450AD30DF10902B4
:10489000A2EB0E02654588BF00221344181A03B02C
:1048A000F0BD11F8012B04F8012FEDE73023303172
:1048B0008370C170031DF1E72DE9F04F2DED028BE0
:1048C0008DB00C46DDF8608016461F46054602F0A6
:1048D00089FED0F800A05046FBF782FC00230A9323
:1048E00023680593D8F8003094F818B0073323F004
:1048F000070303F10802C8F80020D3E90023C4E944
:104900001223D4E9128929F000430793CDF81880C7
:1049100008EE100A9F4BDDE906014FF0FF32FCF76D
:104920000DF988BBDDE906019A4B4FF0FF32FCF729
:10493000E7F848BB0022002340464946FCF7D6F87A
:1049400010B12D2384F84330934B9448BBF1470FAB
:1049500094BF9846804603232361059B23F00402FD
:1049600022604FF00009009733460BAA21462846E3
:1049700000F0D8F9013040F090804FF0FF300DB0DA
:10498000BDEC028BBDE8F08F42464B46404649469F
:10499000FCF7D4F840B14B46002BBCBF2D2384F864
:1049A00043307F487F4BD1E763680BF0DF0206920C
:1049B0005A1C3FD106236360059B616843F4806203
:1049C000002303930AABCDE901B309AB49EC108B8B
:1049D000009322600DF123032846FFF7CDFE069BCE
:1049E0000999472B804608D1C81C02DB63689942AD
:1049F00041DDABF1020B5FFA8BFBBBF1650F20D8F9
:104A000001395A4604F150000991FFF717FF0A9A3D
:104A10001318012A8146236102DC2268D20701D5DE
:104A2000013323619DF82330002B9CD02D2384F883
:104A3000433098E7069A472ABED1002BBCD1012308
:104A4000B9E7BBF1660F18D1002963680BDD21615E
:104A500013B92268D00702D501330B442361A16545
:104A60004FF00009DEE713B92268D20701D50233FF
:104A7000F4E70123F2E74FF0670B0A9B994205DB4D
:104A800023682161D807EAD54B1CE7E70029D4BF8A
:104A9000C1F1020201221344E0E723685A0507D45A
:104AA0002369424631462846B84701302CD164E795
:104AB000BBF1650F40F2E080D4E91201002200232F
:104AC000FCF70AF8002834D0374A0123314628463B
:104AD000B84701303FF451AFDDE909239A4202DBC8
:104AE0002368D80710D518EE103A524631462846AA
:104AF000B84701303FF441AF4FF0000804F11A0904
:104B00000A9B013B434509DC23689B0700F10581B3
:104B1000E0680B9B9842B8BF184630E701234A462D
:104B200031462846B84701303FF427AF08F1010865
:104B3000E6E7099B002B39DC1B4A01233146284656
:104B4000B84701303FF419AFDDE90923134302D11F
:104B50002368D907D8D518EE103A52463146284670
:104B6000B84701303FF409AF4FF0000904F11A0AC9
:104B7000099B5B424B4501DC0A9B92E701235246AD
:104B800031462846B84701303FF4F7AE09F1010934
:104B9000EEE700BFFFFFEF7F4C970008509700083B
:104BA00058970008549700085C9700080A9AA36D6C
:104BB0009A42A8BF1A46002A914637DC4FF0000BF4
:104BC00029EAE97904F11A02A36D0593A3EB09031D
:104BD0005B4533DCDDE909239A423BDB2368DA07D6
:104BE00038D40A9B059A09999A1AA3EB01099145B1
:104BF000A8BF9146B9F1000F35DC4FF0000829EA53
:104C0000E97904F11A0ADDE909239B1AA3EB0903E8
:104C100043457FF779AF0123524631462846B847CE
:104C200001303FF4AAAE08F10108ECE71346314623
:104C300042462846B8470130C0D19EE6012331469E
:104C400028460592B84701303FF497AE059A0BF11C
:104C5000010BB9E718EE103A524631462846B847DC
:104C60000130BED189E6059A4B464244314628467A
:104C7000B8470130C1D180E60A9A012A01DCDB077E
:104C800038D50123424631462846B84701303FF423
:104C900074AE18EE103A524631462846B8470130F5
:104CA0003FF46BAED4E9120100220023FBF714FF9E
:104CB000D8B90A9B08F10102013B31462846B847A2
:104CC00001300ED159E60123524631462846B847F5
:104CD00001303FF452AE08F101080A9B013B434505
:104CE000F1DC4B4604F15002DCE64FF0000804F121
:104CF0001A0AF2E701234246DFE701234A4631461A
:104D00002846B84701303FF438AE08F10108E3689F
:104D10000B995B1A4345F0DCFAE64FF0000804F10A
:104D20001909F4E72DE9F047164699468A680B6998
:104D3000DDF820809342B8BF1346336091F84320DA
:104D400007460C460AB1013333602368990642BF17
:104D5000336802333360256815F0060506D104F187
:104D6000190AE36832689B1AAB4226DC94F84320A8
:104D7000131E226818BF012392062BD404F14302AC
:104D800049463846C04701301ED02368E56832687E
:104D900003F00603042B08BFAD1AA36822690CBFF9
:104DA00025EAE57500259342C4BF9B1AED1800263D
:104DB0001A34B5421AD1002008E001235246494670
:104DC0003846C047013003D14FF0FF30BDE8F087CF
:104DD0000135C6E7E1185A1C302081F8430022440F
:104DE00094F8451082F843100233C7E701232246A6
:104DF00049463846C0470130E6D00136D9E70000C1
:104E00002DE9FF470F7E0C9D782F914680460C467A
:104E10009A4601F1430207D8622F0AD8002F00F00A
:104E2000D880582F00F0A38004F1420584F8427026
:104E30003AE0A7F16303152BF6D801A151F823F04E
:104E4000994E0008AD4E0008294E0008294E000872
:104E5000294E0008294E0008AD4E0008294E0008D2
:104E6000294E0008294E0008294E0008B94F0008B5
:104E7000DD4E00089B4F0008294E0008294E00080F
:104E8000DB4F0008294E0008DD4E0008294E0008BF
:104E9000294E0008A34F00082B681A1D1B682A60C2
:104EA00004F1420584F842300123A3E02068296818
:104EB000060601F104030AD50E682B60002E03DA02
:104EC0002D23764284F843305E480A2319E00E68A9
:104ED0002B6010F0400F18BF36B2EFE72B68206848
:104EE000191D2960010601D51E6802E04606FBD5A2
:104EF0001E8854486F2F0CBF08230A23002184F812
:104F000043106568A560002DA2BF216821F004014F
:104F100021600EB9002D4DD01546B6FBF3F103FB11
:104F20001167C75D05F8017D3746BB420E46F4D9CF
:104F3000082B0BD12368DE0708D5236961689942E5
:104F4000DEBF302305F8013C05F1FF35521B22611D
:104F5000CDF800A04B4603AA21464046FFF7E2FEEB
:104F600001304CD14FF0FF3004B0BDE8F087354838
:104F700081F845702968236851F8046B29601D0683
:104F800014D5DF0744BF43F0200323601EB9236814
:104F900023F0200323601023B0E7236843F02003AD
:104FA00023607823284884F84530E3E7590648BF52
:104FB000B6B2E6E71546BBE72B6826686169181D9F
:104FC000286035061B6801D5196002E07006FBD524
:104FD0001980002323611546BAE72B681A1D2A6041
:104FE0001D68626800212846FBF702F908B1401BE2
:104FF000606063682361002384F84330A8E7236975
:105000002A4649464046D0470130ABD023689B072B
:1050100013D4E068039B9842B8BF1846A4E7012365
:10502000324649464046D04701309BD00135E368BF
:1050300003995B1AAB42F2DCEBE7002504F1190699
:10504000F5E700BF5E9700086F9700082DE9F04F65
:1050500087B0174603938B685A1EB2F5AE7F83BFA5
:105060006FF4AE755B190293002386BF40F25D13A7
:105070008B6002930B688B46002543F4F0634BF87A
:105080001C3BCDE9045580460C465E46AA46A9461F
:105090000195A26852B13B681B784E2B64D8402B17
:1050A0003CD8A3F12B01C8B20E283AD9B9F1000FB0
:1050B00003D0236823F4807323600AF1FF3ABAF126
:1050C000010F00F213815E4500F20581012528469B
:1050D00007B0BDE8F08FA3F161020D2AE6D801A167
:1050E00051F822F023520008AD500008AD500008DE
:1050F000AD500008835200085B520008AD50000814
:10510000AD50000831520008AD500008AD50000805
:10511000AD500008AD500008E9510008A3F141026C
:10512000DBE70E29C2D801A050F821F0DB510008BE
:10513000AD500008DB5100086F520008AD50000868
:1051400089510008C5510008C5510008C551000823
:10515000C5510008C5510008C5510008C5510008D7
:10516000C5510008C55100086E2B09D8602BB2D874
:10517000542B77D0592B99D1072D97D1082529E0A9
:10518000742B6FD0792BF6E72168C8051AD5029BDE
:1051900021F08001216009F101091BB1013B0132BD
:1051A0000293A260A368013BA360236901332361DA
:1051B0007B68013B002B7B6040F384803B680133BC
:1051C0003B6066E71AEB050F7FF470AF226822F4AC
:1051D000C072226006F8013BE4E7226810067FF502
:1051E00065AF22F08002F4E7BAF1000F0ED1B9F1F9
:1051F000000F0ED1226802F4E061B1F5E06F08D132
:1052000022F4F06222604FF0010AE3E7BAF1020FE4
:1052100055D0012D02D0042D7FF448AF0135EDB2F9
:10522000D8E7BAF1010F7FF441AF4FF0020AD1E79E
:105230007DB9B9F1000F7FF43CAF226802F4E06160
:10524000B1F5E06F7FF439AF22F4F06222600125FE
:10525000C0E7032DE2D0052DDEE7022D7FF426AF57
:105260000325B7E7062D7FF421AF0725B2E72268B3
:1052700091057FF51BAF22F420722260CDF80490D7
:10528000A8E7226802F4A061B1F5806F06D050054E
:105290007FF50CAFB9F1000F3FF40FAF910558BF88
:1052A000019922F4F06258BFA9EB010142F4C072E7
:1052B00058BFCDE9041622604FF000098AE74FF08D
:1052C000030A87E7D4F880313946404698470028DA
:1052D0003FF4DFAEEAE6D4F87C3116F8011D3A4619
:1052E000404698472369013B2361ECE66B1E062B81
:1052F00025D8022D36D85E457FF6E8AED4F87C314D
:1053000016F8011D3A46404698472369013B236140
:10531000F1E70298D4F87C3110F8011D02903A466A
:10532000404698472369013B23610AF1FF3A5FFA3F
:105330008AFABAF1020FECD1033DEDB2761B236875
:10534000DA052FD55B0510D55E457FF6BFAED4F8E4
:105350007C3116F8011D3A46404698472369013BC7
:105360002361F1E7AA460296DFE716F8011C2369DC
:10537000652903F1FF3306F1FF3523610CD0452980
:105380000AD0D4F87C313A4640469847236916F84B
:10539000021C013BB51E2361D4F87C313A464046DD
:1053A00098472E46256815F0100559D135702368A9
:1053B00003F4C063B3F5806F1BD1019B4B45A3EB96
:1053C000090223D100225946404600F097FE226888
:1053D000039B12F0020F57EC106B1B6821D003994E
:1053E0001A1D0A601B68C3E90067E3680133E360C4
:1053F0006DE6049B002BE5D005990A232A4601316E
:10540000404600F003FF049B059EC21A04F26F138E
:105410009E4228BF04F5B7761249304600F02CF8BA
:10542000D0E7039912F0040F03F104020A60D9D106
:10543000D3F8008010EE102A10EE100A3B463946D1
:10544000FBF77CFB28B1084800F010F888ED000A53
:10545000CBE730463946FBF7CFFBC8F80000C4E77E
:10546000002534E680970008889B00089FED010A1C
:10547000704700BF0000C07F0EB400B59CB01DABEC
:10548000029006906FF00041094807910491094984
:1054900053F8042B05910068019302A902F0E2FE83
:1054A000029B00221A701CB05DF804EB03B0704739
:1054B0009C0000200802FFFF70B504460D4645EC35
:1054C000104B164602F02CFC51EC100B7EB1C5F3CC
:1054D0000A53C3F16B03002B09DD1B0503F17F5554
:1054E000002405F5401522462B46FBF78DF870BDCC
:1054F0002DE9F04F2DED028B9DB01F460023189330
:10550000A24B13921B680593044618468846FAF787
:1055100067FE4FF0000A05464FF0000BCDF85C80A7
:10552000179B1A782B2A4ED03BD80D2A34D8082A3C
:1055300034D8002A3ED000230A93179E3378302BAC
:1055400040F0B080737803F0DF03582B68D10A9BDA
:10555000019318AB029700938D4A19AB17A9204607
:1055600001F038FD10F00707054605D0062F2CD1B5
:105570000136002317960A93139B002B40F0908569
:105580000A9BEBB152460BF1004343EC102B1DB0CC
:10559000BDEC028BBDE8F08F202ACCD101331793EC
:1055A000BEE72D2AC7D101220A925A1C17925B78B6
:1055B000002BC2D1139BCDF85C80002B40F06E8590
:1055C00052465B46E1E70022EEE7189A3AB13521F0
:1055D0001AA802F0B0FC1899204602F06FF8013FBB
:1055E000042F06D8DFE807F00A0314170A00DDE9E4
:1055F0001AAB2807C0D54BF0004BBDE7DDE91AA375
:10560000199A23F4801302F2334243EA025BF0E773
:10561000DFF880B1EDE76FF0004B4FF0FF3AE8E7BD
:10562000179B5A1C17925B78302BF9D0002BA3D014
:1056300001234FF000090493179B0893CDF81C90A9
:105640004F460A2217980678A6F13003D9B20929E5
:105650002AD905992A4602F01FFF98B30020324646
:105660003D4605900346652A01D0452A18D11DB94B
:10567000049A02439ED00025DDF85C8008F1010207
:10568000179298F801202B2A75D02D2A7BD04FF045
:10569000000CA2F13001092940F28280CDF85C8033
:1056A00000269DE00023C4E7082FD8BF079900F12A
:1056B0000100DABF02FB0133079302FB093901370E
:1056C0001790BFE7179B5A1917925A5D002F37D0D2
:1056D00005903D46A2F13003092B12D90123C2E700
:1056E000179B5A1C17925A780130302AF8D0A2F131
:1056F0003103082B00F2D984179B059000200893F2
:105700000546303A00F1010314D00599194405917A
:105710002B4600EB050E0A21734513D12B18082BDD
:1057200005F1010505441CDC07990A2303FB01234D
:1057300007930023179A511C179152781846C9E70E
:105740003846D2E7082B04DC079E4E430796013308
:10575000E2E703F1010CBCF1100FD8BF01FB09F91E
:10576000F5E7102DDCBF0A2303FB0929E1E700233D
:10577000059301237CE74FF0000C08F10202179219
:1057800098F8022085E74FF0010CF6E7D099000861
:10579000889700080000F07F179A511C17915278E3
:1057A000302AF9D0A2F1310108293FF679AFA2F1F0
:1057B000300E179A0692179A511C17915278A2F13F
:1057C0003006092E37D9069E891B082944F61F6624
:1057D00002DC7645A8BF7646BCF1000F00D07642C9
:1057E000002D4DD1049901437FF4C6AE002B7FF408
:1057F000E1AE692A27D024DC492A24D04E2A7FF43E
:10580000D9AE9F4917A801F03DFE00283FF4D2AE63
:10581000179B1B78282B2DD19A491AAA17A801F09B
:1058200045FE052826D11B9BDDF868A043F0FF4B01
:105830004BF4E00BA0E60A2101FB0E2EAEF1300E78
:10584000B9E76E2ADBE7904917A801F01BFE002894
:105850003FF4B0AE179B8D49013B17A8179301F099
:1058600011FE10B9179B01331793DFF830B24FF0D8
:10587000000A81E6864802F0F7FD5BEC10AB7BE6A0
:10588000059B0798F31A002F08BF2F46102D06938B
:10589000A846A8BF4FF01008FAF73CFE092D824633
:1058A0008B4613DD7B4B03EBC80353E91223FAF756
:1058B000ABFE824648468B46FAF72CFE02460B4664
:1058C00050465946FAF7EAFC82468B460F2D38DCE3
:1058D000069B002B3FF450AE24DD162B0BDC6D49EC
:1058E00001EBC301D1E9000152465B46FAF78CFE99
:1058F00082468B4640E6069AC5F12503934220DB9B
:10590000644CC5F10F0504EBC50152465B46D1E975
:105910000001FAF779FE069B5D1B04EBC504D4E990
:105920000023E3E7069B16330BDB059B9E1B594BBD
:1059300003EBC606D6E9002350465946FAF78EFF18
:10594000D6E7069BA5EB08089844B8F1000F74DD74
:1059500018F00F030AD04F4901EBC30152465B46D2
:10596000D1E90001FAF750FE82468B4638F00F0865
:105970004FD0B8F59A7F22DD00252E460795059574
:105980002223DFF818B123604FF0000A079B002B99
:105990003FF4F2AD1899204601F090FE059920469B
:1059A00001F08CFE3146204601F088FE0799204622
:1059B00001F084FE2946204601F080FEDCE5364BEE
:1059C000049300234FEA2818504659469946B8F1E7
:1059D000010F21DC0BB182468B462F4BABF1547B80
:1059E00003EBC90952465B46D9E90001FAF70CFE00
:1059F0002A4B0A460B402A498B428246BCD8A1F565
:105A000080118B4286BFDFF89CB04FF0FF3A02F165
:105A1000547B0023049384E018F0010F05D0049B0D
:105A2000D3E90023FAF7F0FD0123049A083209F1C3
:105A300001094FEA68080492C9E7EAD0C8F10008F2
:105A400018F00F020AD0134B03EBC203504659461D
:105A5000D3E90023FAF702FF82468B465FEA281853
:105A6000D7D0B8F11F0F1FDD00252E4607950595ED
:105A700022234FF0000A4FF0000B236086E700BF9F
:105A8000599700089C97000851970008DC98000877
:105A9000889B0008689A0008409A00080000F07F80
:105AA0000000A07CFFFFEF7F18F0100318BF6A23EF
:105AB000DFF8AC93049350465946002318F0010FC9
:105AC00004D0D9E90023FAF79FFD01235FEA6808B3
:105AD00009F10809F2D10BB182468B46049BC3B190
